:100000000C9462000C94030B0C94E60A0C948A0086
:100010000C948A000C948A000C948A000C948A0038
:100020000C948A000C944D090C948A000C948A005C
:100030000C948A000C948A000C94F6080C948A00A4
:100040000C94AC080C948A000C948A000C948A00DE
:100050000C948A000C94510B0C948A000C948A0026
:100060000C948D070C948A000000000024002700E7
:100070002A0000000000250028002B0000000000DE
:1000800023002600290004040404040404040202DA
:100090000202020203030303030301020408102007
:1000A0004080010204081020010204081020000012
:1000B0000008000201000003040700000000000027
:1000C0000000520B11241FBECFEFD8E0DEBFCDBF22
:1000D00011E0A0E0B1E0EAE0F8E202C005900D9284
:1000E000A233B107D9F723E0A2E3B1E001C01D922A
:1000F000A236B207E1F710E0C2E6D0E004C02197D3
:10010000FE010E94B111C136D107C9F70E94630BED
:100110000C9403140C940000E8E5F3E010821182C3
:1001200012821382148215821682178208953F92DA
:100130004F925F926F927F928F929F92AF92BF92F7
:10014000CF92DF92EF92FF920F931F93CF93DF93A3
:10015000CDB7DEB729970FB6F894DEBF0FBECDBF7F
:10016000142F0E94E6124B015C0120E030E0A9014F
:100170000E943E1200E094E0792E87FF07C0B7FA94
:10018000B094B7F8B09401E023E0722E20E030E0A4
:1001900040E05FE3C501B4010E94D2110E94B51294
:1001A0006B017C011E821D8281E090E0A0E0B0E046
:1001B00089839A83AB83BC83E72DF0E0412E512CD9
:1001C000712C612CAD81BE81AE17BF079CF42981D3
:1001D0003A814B815C81C301B2010E944B1169835A
:1001E0007A838B839C832D813E812F5F3F4F3E839B
:1001F0002D83E8CF412C512C80E8682E8FE3782E98
:100200001986812F90E0B0E0A0E08D839E83AF83BC
:10021000B88789819A81AB81BC81C816D906EA0664
:10022000FB0610F19985915099876D817E818F81B0
:1002300098850E94E6129B01AC01C301B2010E94A5
:1002400043122B013C01AC019B01C501B4010E948A
:10025000961320E030E040E05FE30E94D2110E945C
:10026000B5126B017C01D5CF20E030E040E85FE3C0
:10027000C301B2010E943E1287FF23C080E4809335
:1002800058038093590310925A0380935B03809321
:100290005C0329960FB6F894DEBF0FBECDBFDF9189
:1002A000CF911F910F91FF90EF90DF90CF90BF9073
:1002B000AF909F908F907F906F905F904F903F9006
:1002C0000895C114D104E104F104A9F48FE38093EB
:1002D0005C0301116CC0F3E0F983998197FDD9CFDC
:1002E00095302CF4E92FF0E0E85AFC4F1082898118
:1002F00081508983F2CFB4E0B983912C412E512CE7
:10030000712C612CE985EE2311F011E0E91110E068
:100310008980F82DF150F9833F2E24E02815B0F0A4
:10032000882D90E0DC01A85ABC4F5D01C701B601E1
:10033000A30192010E948F11605F7E4F17951127D4
:100340001795FB018081182BD5011C93B981B23020
:1003500059F48A948A948982E4E0E31528F0E32D25
:10036000F0E0E85AFC4F1082C701B601A3019201E8
:100370000E948F1169017A019394C114D104E104A0
:10038000F10409F0BFCFA985A91508F0BBCF002360
:1003900009F4A3CFE9812E2F21502983E53008F0FD
:1003A0009CCFF0E0E85AFC4F80E4808396CF32E0A7
:1003B0003983E3E0F6CF2091D502260F3327331F90
:1003C00021323105ECF420912003FC0190E080E023
:1003D000243069F082E00895A091D5022191AC010A
:1003E0004D545D4FA40FB52FB11D2C930196861768
:1003F00098F38091D502680F6093D50280E008954C
:1004000081E00895089508950895E091B1028091E2
:10041000B002E81730F4F0E0E057FD4F808190E043
:1004200008958FEF9FEF08959091B1028091B002EF
:100430002FEF3FEF981748F4E92FF0E0E057FD4F1A
:10044000208130E09F5F9093B102C90108958091AF
:10045000B0029091B102891B990B0895CF92DF925F
:10046000EF92FF920F931F93CF93DF937C01CB0109
:100470008A0120912603222389F0EB016B01C40E2F
:10048000D51ECC15DD0569F06991D701ED91FC9180
:100490000190F081E02DC7010995F3CF642F0E94F0
:1004A000DB01C801DF91CF911F910F91FF90EF9079
:1004B000DF90CF900895CF93DF931F92CDB7DEB733
:1004C0006983209126032223F9F0209149032032E9
:1004D00058F021E030E0FC013383228390E080E09B
:1004E0000F90DF91CF91089580912703E82FF0E0DE
:1004F000E85DFC4F998190838F5F80932703809301
:10050000490381E090E0ECCF61E0CE0101960E94CA
:10051000DB01F7CF682F8CE493E00C945B0290E052
:1005200080E00895833081F028F4813099F08230A2
:10053000A9F008958730A9F08830C9F08430B1F46B
:10054000809180008F7D03C0809180008F778093A1
:100550008000089584B58F7784BD089584B58F7D1C
:10056000FBCF8091B0008F778093B0000895809189
:10057000B0008F7DF9CFCF93DF93282F30E0F901C2
:10058000E255FF4F8491F901E656FF4FD491F901EE
:10059000EA57FF4FC491CC23A1F081110E9492022F
:1005A000EC2FF0E0EE0FFF1FE458FF4FA591B49140
:1005B000EC91ED2381E090E009F480E0DF91CF91B0
:1005C000089580E090E0FACF1F93CF93DF93282F18
:1005D00030E0F901E255FF4F8491F901E656FF4FF3
:1005E000D491F901EA57FF4FC491CC23A9F0162FFB
:1005F00081110E949202EC2FF0E0EE0FFF1FEE58E7
:10060000FF4FA591B4918FB7F894EC91111108C0E8
:10061000D095DE23DC938FBFDF91CF911F9108959A
:10062000DE2BF8CFECEBF0E080818A7B808360E00A
:1006300082E10E94E40260E083E10C94E402109203
:10064000200381E080931F031092FA0261E082E1AF
:100650000E94E40261E083E10E94E402E9EBF0E041
:1006600080818E7F808380818D7F808380E28093F4
:10067000B80085E48093BC000895CF93DF9391E0A8
:100680009093B202882361F0C091B800D091BA0073
:100690000E9412030E941F03D093BA00C093B800B7
:1006A000DF91CF910895CF93DF9390E0FC01E65660
:1006B000FF4F24918A579F4FFC0184918823C9F0F2
:1006C00090E0880F991FFC01E859FF4FA591B49164
:1006D000FC01EE58FF4FC591D49161110DC09FB739
:1006E000F8948C91209582238C93888128232883E9
:1006F0009FBFDF91CF910895623051F49FB7F89476
:100700003C91822F809583238C93E8812E2BEFCF11
:100710008FB7F894EC912E2B2C938FBFEACF3FB775
:10072000F89480918C0290918D02A0918E02B091EC
:100730008F0226B5A89B05C02F3F19F00196A11D79
:10074000B11D3FBFBA2FA92F982F8827BC01CD011B
:10075000620F711D811D911D43E0660F771F881F79
:10076000991F4A95D1F70895CF92DF92EF92FF92A9
:100770000F931F93CF93DF93D091490381E0D13240
:1007800008F09CC0C09148030E948F036B017C015C
:100790008091200381116CC082E08093200381E06E
:1007A00080931F038FEF80931E0310921D03D0933D
:1007B0001C03A8E2B3E0ECEFF2E080E0D8138DC0B8
:1007C0001092FB028091FB02CC0FC82BC093FB025E
:1007D0008091FA02813009F084C01092FA020E94DE
:1007E0008F036B017C018091FB028093BB008091A1
:1007F000220390912303A0912403B0912503892B18
:100800008A2B8B2BA1F00E948F0300912203109161
:10081000230320912403309125036C197D098E094F
:100820009F09061717072807390708F442C0809167
:10083000BC0083FDD8CF85EC8093BC000E948F0361
:100840006B017C0180912003823009F44CC08091BF
:100850001E038F3F09F469C080911E03803209F4A2
:1008600066C080911E03803309F463C084E026C013
:100870008091220390912303A0912403B09125033A
:10088000892B8A2B8B2B09F483CF0E948F03009135
:1008900022031091230320912403309125036C1926
:1008A0007D098E099F09061717072807390708F0E1
:1008B0006FCF809121030E943D0385E010922703B2
:1008C0001092490310922603DF91CF911F910F914F
:1008D000FF90EF90DF90CF9008959D9191938F5F5F
:1008E0006DCF85EEA9CF8091220390912303A09133
:1008F0002403B0912503892B8A2B8B2B09F4A2CFDB
:100900000E948F030091220310912303209124035E
:10091000309125036C197D098E099F090617170769
:100920002807390708F08ECFC4CF80E0C7CF82E018
:10093000C5CF83E0C3CF9091600321E020932603CD
:10094000909348031092270310924903803108F0D6
:100950008FE0806E90E00E948A020C94B403909124
:10096000600321E02093260390934803109227030D
:100970001092490390E0880F991F81680E948A02B3
:100980000C94B403CF93DF938091600391E0909334
:10099000260380934803109227031092490360E0D6
:1009A0008CE493E00E945B02C8E5D3E069918CE49B
:1009B00093E00E945B0290E080E00E948A0283E064
:1009C000C036D80799F7DF91CF910C94B4030E94F9
:1009D0008C000E94C2048091600391E090932603F2
:1009E00080934803109227031092490380E290E01D
:1009F0000E948A020E94B4030C94120310926400B5
:100A000062E084E00E94530361E080E10E945303AE
:100A100061E081E10C94530320913C0130913D0150
:100A2000232B59F470E070933B0160933A0187BD2A
:100A300080916E00826080936E000895CF93DF9363
:100A4000C8E5D3E080E788871092B1021092B00227
:100A500010922703109249030E941F0382E092E044
:100A60009093D4028093D30283E092E09093D802D3
:100A70008093D702888591E0909326038093480362
:100A800081E290E00E948A020E94B4030E948C00DE
:100A90000E94C20480E00E94AF048FE00E949B0489
:100AA00080917802DF91CF910C949B040C948C0080
:100AB000FF920F931F93CF93DF938C01EB01F8808C
:100AC0000E943511F81621F06F2DC8010E943D11CA
:100AD000CE01DF91CF911F910F91FF900895CF9399
:100AE000C0914A0384E090E00E943511C81729F0B4
:100AF0006C2F84E090E00E943D11C0914B0385E093
:100B000090E00E943511C81729F06C2F85E090E025
:100B10000E943D118AE493E0CF910895CF93DF9333
:100B2000EB010E9435118883CE01DF91CF910895AA
:100B300085ED8093BC008091220390912303A091C6
:100B40002403B09125030796A11DB11D23E0B6959E
:100B5000A795979587952A95D1F72091BC0024FDFC
:100B600003C0109220030895409122035091230363
:100B70006091240370912503452B462B472B69F385
:100B80000097A105B10541F02AE12A95F1F700C0CF
:100B90000197A109B109E1CF809121030C943D0394
:100BA000CF9380918102909182028330910509F464
:100BB0006FC1A0F58130910509F4A7C0029709F42F
:100BC00033C180E00E94AF04C1E080913C0190916C
:100BD0003D01892B09F4C0E080917F029091800251
:100BE0008130910509F440C0029709F46CC060910E
:100BF0003E0170913F01809140019091410160312F
:100C000027E2720781059105F0F44AE00E949700FF
:100C1000C260C0935A03CF910C94C20485309105F1
:100C200009F473C108F463C1069759F681E00E9484
:100C3000AF048CE7809358038CE58093590380932D
:100C40005B0388E7A2C06C507E4F8F4F9F4F28EE0A
:100C500033E040E050E00E948F11CA01B9014AE040
:100C60000E949700C460D5CF809108012AE0622FCE
:100C70000E945B11E82FF0E0E05FFE4F80818093DF
:100C80005803809165028095879588278795E92F7D
:100C9000F0E0E05FFE4F9081892B809359038091B3
:100CA00064020E945B11E82FF0E0E05FFE4F80815C
:100CB00080935B03E92FF0E0E05FFE4F808180933B
:100CC0005C03C061A6CF8CEF8093580380915E02D5
:100CD00064E60E945B11E82F892FF0E0E05FFE4F91
:100CE0009081909359036AE00E945B11E82FF0E035
:100CF000E05FFE4F808180935B03E92FF0E0E05FCF
:100D0000FE4F808180935C0384CF81E00E94AF041A
:100D1000E0910E01F0910F013197E730F10508F0F5
:100D20007ACFEB56F94F0C94B1119C06C806F00629
:100D3000DB06000708070D0787EF809358038091B3
:100D40004A0390914B030097D1F064E670E00E9453
:100D500067117727FB01E05FFE4F20812093590345
:100D60006AE070E00E946711605F7E4FFB012081A6
:100D700020935B03FC01E05FFE4F808106C08FE3A0
:100D80008093590381E780935B0380935C0343CF97
:100D90008DEE8093580380917902882381F364E675
:100DA0000E945B11E82F892FF0E0E05FFE4F9081F9
:100DB0009093590308C08CE78093580380ED80938B
:100DC0005903809178026AE00E945B11E82FF0E0FD
:100DD000E05FFE4F808180935B03E92FF0E0CBCF93
:100DE0008CEF8093580380917A02882341F28FE33D
:100DF0008093590384E580935B0310925C030BCFCF
:100E00008DE68093580389E78093590388E7F3CFF1
:100E100080E5809358038DE6F7CF8FE380935803E6
:100E200081E780935903E7CF81E00E94AF0480916E
:100E3000090190910A0182309105D9F060F401977F
:100E400009F0E9CE86E78093580386EF8093590333
:100E500080910801B8CF83309105A1F0049709F083
:100E6000DACE83EF80935803109259038091620287
:100E7000AACF80E18093580380E980935903809141
:100E80006402A1CF8EEB809358038091630287CFD9
:100E900081E00E94AF0460913E0170913F0180911A
:100EA000400190914101C1E020913C0130913D0110
:100EB000232B09F4C0E06031F7E27F07810591053B
:100EC00028F44AE00E949700CA60A3CE6C507E4F7F
:100ED0008F4F9F4F28EE33E040E050E00E948F118B
:100EE000CA01B9014AE00E949700CC6092CE83E02B
:100EF0000E94AF0488E3809358038CE580935903E4
:100F00008DE180935B038CE740CF82E00E94AF04C9
:100F100089E78093580380E584CF1F920F920FB624
:100F20000F9211242F933F934F935F936F937F936F
:100F30008F939F93AF93BF93EF93FF938091B900EB
:100F4000887F803609F44AC0F0F5883209F4A7C0DA
:100F500018F5803109F49BC0B8F4882309F4F9C06E
:100F6000883009F494C0FF91EF91BF91AF919F91A8
:100F70008F917F916F915F914F913F912F910F9042
:100F80000FBE0F901F901895883109F488C08032E9
:100F900051F780931E0314C0803409F49DC040F4BF
:100FA0008033B9F38833F9F680931E0385ECB0C023
:100FB000803509F485C0883509F496C0883499F6DF
:100FC0000E949805D0CF883909F48CC038F588374D
:100FD00029F050F4883611F0803729F683E08093A9
:100FE00020031092F90257C0883809F47BC0803979
:100FF00019F0803809F0B7CF8091F902803208F0FB
:1010000071C0E091F90281E08E0F8093F902809126
:10101000BB00F0E0E752FD4F80833DC0803B39F0DC
:10102000E0F4803A09F479C0883A09F09CCF84E072
:10103000809320031092D6021092D502E091D30241
:10104000F091D40209958091D50281110FC081E001
:101050008093D5021092B30209C0803C09F4A6CF58
:10106000883C09F4A3CF883B09F07DCFE091D602FC
:1010700081E08E0F8093D602F0E0ED54FD4F808129
:101080008093BB009091D6028091D50229C08091B7
:10109000FB028093BB0085EC8093BC0064CF9091F1
:1010A0001D0380911C03981758F5E0911D0381E002
:1010B0008E0F80931D03F0E0E450FD4F8081E9CF57
:1010C000E0911D0381E08E0F80931D038091BB0092
:1010D000F0E0E450FD4F808390911D0380911C034C
:1010E0009817C8F285E8D8CFE0911D0381E08E0FF4
:1010F00080931D038091BB00F0E0E450FD4F80839E
:1011000080911F0381115CCF81E08093FA0284EA11
:101110008093BC001092200326CF85EC8093BC0006
:10112000109220038091F902803230F4E091F902AC
:10113000F0E0E752FD4F10826091F90270E0E0911B
:10114000D702F091D80289ED92E009951092F90248
:101150000ACF10921E0334CF1F920F920FB60F9238
:1011600011242F933F938F939F93AF93BF938091BD
:10117000880290918902A0918A02B0918B023091ED
:10118000870226E0230F2D3758F50296A11DB11DC9
:10119000209387028093880290938902A0938A0209
:1011A000B0938B0280918C0290918D02A0918E025F
:1011B000B0918F020196A11DB11D80938C02909376
:1011C0008D02A0938E02B0938F02BF91AF919F9139
:1011D0008F913F912F910F900FBE0F901F901895F8
:1011E00029E8230F0396A11DB11DD2CF1F920F92A4
:1011F0000FB60F9211242F933F934F935F936F93EA
:101200007F938F939F93AF93BF93EF93FF938091BF
:1012100039018823E1F1429A439810923901809173
:101220003C0190913D019C012F5F3F4F30933D0168
:1012300020933C0120913A0130913B012817390756
:10124000A8F480916E008D7F80936E004298439841
:1012500010923D0110923C0180915F02823031F486
:1012600010925F026EEF84E10E940C05FF91EF91F6
:10127000BF91AF919F918F917F916F915F914F91AE
:101280003F912F910F900FBE0F901F90189542988D
:10129000439A81E080933901C2CF1F920F920FB61B
:1012A0000F9211248F929F92AF92BF92CF92DF92B2
:1012B000EF92FF922F933F934F935F936F937F93A0
:1012C0008F939F93AF93BF93CF93EF93FF93289800
:1012D00080EE8093B200C0916502CF5FC09365023B
:1012E00080910B01813051F48093840290917902B6
:1012F000992331F0815080930B0102C08111F6CF08
:101300008091040190910501009729F00197909335
:1013100005018093040180913801811124C0E8E522
:10132000F2E02BE841E050E060E070E092918291C1
:1013300093838283B0E0A0E0481759076A077B07D0
:1013400020F4203610F4AC01BD01215079F7409310
:101350000001509301016093020170930301109208
:1013600043011092420180913801823008F0B7C0E9
:10137000809138018F5F80933801C0903E01D090FA
:101380003F01E0904001F090410180917402909102
:101390007502A0917602B09177028C159D05AE057D
:1013A000BF0540F4C0927402D0927502E0927602BA
:1013B000F0927702609170027091710280917202D6
:1013C000909173026C0D7D1D8E1D9F1D60937002A8
:1013D00070937102809372029093730280906C02FA
:1013E00090906D02A0906E02B0906F02680D791D12
:1013F0008A1D9B1D20E13EE040E050E00E948F11DD
:1014000049015A0180926C0290926D02A0926E0284
:10141000B0926F02CC3309F09CC010926502C0916B
:101420006402CF5FC093640280916002882319F048
:10143000815080936002CD28CE28CF2829F4809156
:1014400037018F5F80933701809137018B3088F0AF
:101450008091600281110DC00E94560585E090E0E8
:10146000909382028093810282E080935F021092C7
:10147000370181E080937C02CC3349F410926402FE
:10148000809108018F5F883169F180930801809114
:1014900062028C3018F08BE08093620280916202CD
:1014A000811103C081E08093620210923601109294
:1014B000350181E293E020913501309136012F5FB3
:1014C0003F4F3093360120933501289A20E0309128
:1014D0006202231708F060C000002F5FF8CF10925F
:1014E00038014BCF109208018091660290916702FB
:1014F00001969093670280936602809168029091B2
:101500006902A0916A02B0916B02880E991EAA1E10
:10151000BB1E8092680290926902A0926A02B09209
:101520006B0210927002109271021092720210926D
:10153000730210926C0210926D0210926E02109261
:101540006F0210927402109275021092760210923D
:1015500077028091650280FF9ACF81E080937E02BE
:1015600080937D02FF91EF91CF91BF91AF919F91B9
:101570008F917F916F915F914F913F912F91FF904C
:10158000EF90DF90CF90BF90AF909F908F900F9093
:101590000FBE0F901F9018952898109285001092FA
:1015A000840025E62A95F1F700002091840030910F
:1015B00085002093340120913401222319F02898CA
:1015C0002898CBCF019709F076CFFACF1F920F92D0
:1015D0000FB60F9211248F939F93EF93FF93289848
:1015E000E2E4F1E08081918101969183808381E042
:1015F00080937B02FF91EF919F918F910F900FBE8F
:101600000F901F9018951F920F920FB60F921124F2
:101610002F933F934F935F936F937F938F939F93FA
:10162000AF93BF93EF93FF9383B78E7F83BF809178
:101630008502882329F010928502F0E0E0E0099508
:1016400080917902882359F18F5F80930B0110926A
:1016500082021092810281E08093830210927B02C9
:1016600064E186E10E940C051092800210927F02D4
:1016700083E090E090930D0180930C01FF91EF9136
:10168000BF91AF919F918F917F916F915F914F919A
:101690003F912F910F900FBE0F901F9018958DE3E3
:1016A000D4CF1895ECE4F3E01382128288EE93E035
:1016B000A0E0B0E084839583A683B78384E291E0C1
:1016C000918380830895CF93DF9300D000D01F9241
:1016D000CDB7DEB7789484B5826084BD84B581606F
:1016E00084BD85B5826085BD85B5816085BD8091ED
:1016F0006E00816080936E00109281008091810065
:10170000826080938100809181008160809381005C
:10171000809180008160809380008091B10084601E
:101720008093B1008091B00081608093B00080917F
:101730007A00846080937A0080917A00826080933E
:101740007A0080917A008E7F80937A0080917A006F
:10175000806880937A001092C10061E088E00E9466
:10176000530360E088E00E94E40260E083E00E94AE
:10177000530360E082E00E9453030E94FE04109233
:10178000B1008091B60080628093B60080EE8093B5
:10179000B20080E28093B3001092B4001092B000C7
:1017A00087E08093B10081E0809370001092800008
:1017B00080918100866080938100809181008E7F7E
:1017C00080938100809164008F7D8093640084B554
:1017D000826084BD85B5826085BD83EC87BD16BC03
:1017E00062E672E080E190E00E948E056AE772E0B6
:1017F00090E080E00E948E0563E672E088E090E071
:101800000E948E0569E772E082E090E00E948E05FA
:1018100084E090E00E94351180934A0385E090E0D7
:101820000E94351180934B0361E672E080E290E004
:101830000E948E0568E772E080E890E00E948E05C5
:10184000809162028F3FD9F080917A028F3FB9F088
:10185000809163028F3F99F0809179028F3F79F0F8
:1018600080914A0390914B038F3F910541F0809105
:1018700061028F3F21F0809178028F3FE9F582E08D
:101880008093620281E080937A029EE690936302E5
:101890009EE19093790220E530E030934B03209352
:1018A0004A038093610283E08093780262E672E0EB
:1018B00080E190E00E9458056AE772E090E080E0E5
:1018C0000E94580563E672E088E090E00E945805A7
:1018D00069E772E082E090E00E9458050E946F057F
:1018E00061E672E080E290E00E94580568E772E0ED
:1018F00080E890E00E94580581E080937C0288E0B7
:1019000080936900E99A0E941E050E948C000E9443
:10191000C20486E090E090938202809381020E944C
:10192000D00510928202109281022FEF89E698E191
:10193000215080409040E1F700C000000E94560511
:10194000789401E010E093E0A92EB12CB4E08B2E46
:10195000912C82E0282E312C809186028823E9F098
:10196000109286020E94E70491E09DBB10926E00E7
:1019700010926F001092700015B818B884E08BB9FF
:1019800014B817B81AB885E083BF80916400856ADF
:1019900080936400909385028895809184028823C7
:1019A00009F456C0109284020E94E70480916E00F0
:1019B0008D7F80936E008091B60084FDFCCF1CBCAF
:1019C00010927A0010923D0110923C0161E088E093
:1019D0000E94530360E088E00E94E40260E082E03D
:1019E0000E94530360E083E00E94530360E084E0C0
:1019F0000E94530360E085E00E94530360E080E1B1
:101A00000E94530360E081E10E94530360E082E0A2
:101A10000E94E40260E084E00E94E40260E083E06F
:101A20000E94E40260E085E00E94E40260E080E160
:101A30000E94E40260E081E10E94E40287E083BF4B
:101A400080916400856280936400E89A10920B0193
:101A500080918302882301F1109283020E94FE0488
:101A6000E89860E088E00E94E40210930F01009380
:101A70000E01109282021092810210928002109246
:101A80007F02B0920D01A0920C010E941E050E94DF
:101A9000560581E080937E02809185028111D4C336
:101AA00080917D02882309F42CC110927D02198255
:101AB0001A821B821C82E0900601F0900701C09000
:101AC0000401D090050181E049815A816B817C81BC
:101AD000E82FF0E0EE0FFF1FEE5BFE4F208131811B
:101AE000420F531F611D711D49835A836B837C8391
:101AF000853009F05EC049815A816B817C81493013
:101B0000574061057105B8F029813A814B815C81AC
:101B1000ACE1B0E00E94B71169837A838B839C8328
:101B20002FE0E216F10419F0FFE0CF2ED12CEFE008
:101B3000EE2EF12C8CE88F5F8C3830F2F09207019A
:101B4000E0920601D0920501C0920401C114D104B3
:101B500009F47EC0C7018C199D098530910508F4F0
:101B600077C063E070E00E9467116D8319821A826A
:101B70001B821C8221E077276E5F7F4F822F90E0CF
:101B8000681779070CF449C049805A806B807C80C3
:101B9000880F991FFC01EE5BFE4F80819181480EFA
:101BA000591E611C711C49825A826B827C822F5F94
:101BB000E5CF8C3109F549815A816B817C81493CA3
:101BC00051056105710508F4B6CF29813A814B8131
:101BD0005C81A5E0B0E00E94B71169837A838B83B2
:101BE0009C8384E5E816F10419F074E5C72ED12C26
:101BF00064E5E62EF12C9ECF8B3809F09CCF94EA59
:101C0000E91691E0F90621F054EAC52EDD24D394BB
:101C100044EAE42EFF24F3948ECF29813A814B814C
:101C20005C81A8E7B5E00E94B711ED812E2F30E06E
:101C300050E040E00E948F11CA01B9012AE030E073
:101C400040E050E00E948F1129833A834B835C83EC
:101C500049815A816B817C8140933E0150933F01C1
:101C6000609340017093410180914A0390914B032E
:101C70002C01712C612C441655066606770608F077
:101C800040C02091600221113CC0892BD1F1EC1899
:101C9000FD0826E0E216F104A0F180910B0181110C
:101CA0001AC083B78E7F83BF8DE380930B010E94A0
:101CB000FE04E8982898409A10930F0100930E01B3
:101CC00010930A01009309010E941E050E94560507
:101CD00081E080937E0282E080935F026EEF84E178
:101CE0000E940C058091810290918202039711F06D
:101CF0000E945605B0928202A092810281E08093F8
:101D00007E02F0900B01FF2029F080917E0281116C
:101D10000E94D00580917C02882309F43AC2FF20FA
:101D200009F437C210927C028EE880937A008EE626
:101D300080937C0023B783E083BF8BE791E001971A
:101D4000F1F700C0000080917A00806480937A00EF
:101D5000889580E490917A00906490937A008895B9
:101D60008150C1F710927A0023BF60917900809171
:101D70006302EFEF8E9FC001112470E00E947B117F
:101D8000603421E072070CF0FBC180916002811188
:101D900009C00E94560582E080935F029092820201
:101DA0008092810260E471E0F1C184E00E94BB0294
:101DB000892B09F037C230920D0120920C0164E1A9
:101DC00082E1FFC14730510508F01FC21092820224
:101DD000109281020E94560585E0809360021AC02D
:101DE0008130910561F0029709F00FC210938202D1
:101DF0000093810210930F0100930E01D0C0209137
:101E00007F02309180022130310569F038F02230B4
:101E1000310571F081E080937E02F7C190938002DA
:101E200080937F02F7CF3092800220927F02F2CF20
:101E30001092800210927F02EDCF81309105C9F09F
:101E40008230910539F720910E0130910F01233036
:101E5000310509F4CEC008F0A9C02130310509F4DC
:101E6000CFC022303105B1F6B0920F01A0920E0121
:101E7000D1CFE0910E01F0910F013197E730F105DC
:101E800048F6EB5BF04F0C94B1114C0F710F8F0FB4
:101E9000810F9A0FA30FD20F80914A0390914B03A9
:101EA00088329105C1F038F4892B71F010924B0300
:101EB00010924A03AFCF8035910581F088379105A4
:101EC000A9F784EF91E002C088E290E090934B0381
:101ED00080934A039FCF80E590E0F8CF88E790E0B9
:101EE000F5CF2E3141F02C3351F08EE1222321F039
:101EF000109279028FCF8CE3809379028BCF88E7A1
:101F0000FBCF809178028F3040F48F5F809378020E
:101F1000809178020E949B047DCF81E0F7CF809171
:101F20007A02882319F010927A0274CF81E08093AC
:101F30007A0270CF309282022092810210930A01BD
:101F4000009309012CC01092740210927502109235
:101F50007602109277021092700210927102109223
:101F600072021092730210926C0210926D02109223
:101F70006E0210926F021092680210926902109223
:101F80006A0210926B02109267021092660210931E
:101F90000F0100930E0110928202109281020E94A2
:101FA000560538CF81E08093860234CF2530310545
:101FB00061F120F12730310509F02CCFF8946AE760
:101FC00072E090E080E00E94580569E772E082E0EC
:101FD00090E00E9458050E946F0568E772E080E873
:101FE00090E00E945805789410928202109281022B
:101FF00001CF90920F0180920E010CCF85E090E00E
:1020000090930F0180930E0105CF87E090E0F8CF09
:1020100081309105D9F08230910509F0FBCE2091F5
:10202000090130910A012330310509F48DC008F00F
:102030006DC02130310509F482C02230310509F02C
:10204000E9CEB0920A01A0920901E4CE8091090183
:1020500090910A0183309105D9F170F48130910596
:1020600039F1029709F0D6CE809164028B3368F57E
:102070008F5F8093640223C084309105B9F1059786
:1020800009F0C8CE8091610281113BC081E080934C
:10209000610284EA91E090930701809306018091A8
:1020A0000601909107019093050180930401B2CE3F
:1020B00080910801873130F48F5F8093080110927E
:1020C0006502A8CE10920801FACF10926402F7CFF1
:1020D000809163029CE9980F8F5F983108F084E645
:1020E0008093630281E080937C0294CE80916202AF
:1020F0009FEF980F8F5F9A3008F081E08093620223
:1021000089CE109261028CED90E0C5CF243031056C
:1021100001F12530310509F07DCEF89463E672E0D7
:1021200088E090E00E94580562E672E080E190E06D
:102130000E94580561E672E080E290E015C090933D
:102140000A018093090166CE90920A0180920901EA
:1021500061CEF89463E672E088E090E00E94580552
:1021600062E672E080E190E00E9458057894109257
:1021700082021092810210930F0100930E01DECEB5
:10218000653A81E0780710F064EA71E0605460938A
:102190005E0280910B01882309F444C080910C01F8
:1021A00090910D0183309105A9F482E00E94BB0259
:1021B000892B09F0FACD10930D0100930C0164E115
:1021C00086E10E940C0580910C0190910D018330F5
:1021D000910541F12091790231E0320F211101C0C6
:1021E0003DE330930B0140918102509182024230D5
:1021F000510509F40DCF08F0E5CD4115510509F45D
:10220000EFCD4130510509F418CE9FEFE3EC29E002
:102210009150E0402040E1F700C00000B0920D0175
:10222000A0920C0180917B02882371F080910B01B8
:10223000882391F080917A02882351F010927B02DA
:1022400061E48EE00E940C0580910B01882321F04F
:1022500080918502882309F0889580E090E0892BA1
:1022600009F47ACB0E94000071CBF999FECF92BDA0
:1022700081BDF89A992780B50895262FF999FECF48
:102280001FBA92BD81BD20BD0FB6F894FA9AF99A93
:102290000FBE01960895DB018F939F930E94B711A3
:1022A000BF91AF91A29F800D911DA39F900DB29FF2
:1022B000900D11240895991B79E004C0991F961779
:1022C00008F0961B881F7A95C9F780950895AA1B78
:1022D000BB1B51E107C0AA1FBB1FA617B70710F011
:1022E000A61BB70B881F991F5A95A9F78095909543
:1022F000BC01CD01089597FB072E16F4009407D07A
:1023000077FD09D00E94671107FC05D03EF4909537
:1023100081959F4F0895709561957F4F0895A1E233
:102320001A2EAA1BBB1BFD010DC0AA1FBB1FEE1F4F
:10233000FF1FA217B307E407F50720F0A21BB30B9A
:10234000E40BF50B661F771F881F991F1A9469F716
:1023500060957095809590959B01AC01BD01CF0172
:102360000895EE0FFF1F0590F491E02D09940E944F
:10237000C211A59F900DB49F900DA49F800D911D3B
:1023800011240895A29FB001B39FC001A39F700DB7
:10239000811D1124911DB29F700D811D1124911D6D
:1023A00008955058BB27AA270E94E9110C945C138A
:1023B0000E944E1338F00E94551320F039F49F3FCD
:1023C00019F426F40C944B130EF4E095E7FB0C94EF
:1023D0004513E92F0E946D1358F3BA17620773076C
:1023E0008407950720F079F4A6F50C948F130EF46A
:1023F000E0950B2EBA2FA02D0B01B90190010C0115
:10240000CA01A0011124FF27591B99F0593F50F42C
:10241000503E68F11A16F040A22F232F342F442784
:10242000585FF3CF469537952795A795F04053957C
:10243000C9F77EF41F16BA0B620B730B840BBAF04C
:102440009150A1F0FF0FBB1F661F771F881FC2F7B7
:102450000EC0BA0F621F731F841F48F487957795CB
:102460006795B795F7959E3F08F0B0CF9395880F85
:1024700008F09927EE0F9795879508950E942113EC
:1024800008F481E008950E9457120C945C130E9496
:10249000551358F00E944E1340F029F45F3F29F085
:1024A0000C94451351110C9490130C944B130E94EF
:1024B0006D1368F39923B1F3552391F3951B550BD5
:1024C000BB27AA2762177307840738F09F5F5F4F07
:1024D000220F331F441FAA1FA9F335D00E2E3AF046
:1024E000E0E832D091505040E695001CCAF72BD05E
:1024F000FE2F29D0660F771F881FBB1F26173707AF
:102500004807AB07B0E809F0BB0B802DBF01FF27E0
:1025100093585F4F3AF09E3F510578F00C94451365
:102520000C9490135F3FE4F3983ED4F3869577952F
:102530006795B795F7959F5FC9F7880F911D969599
:10254000879597F90895E1E0660F771F881FBB1FF5
:10255000621773078407BA0720F0621B730B840BA2
:10256000BA0BEE1F88F7E09508950E94751388F066
:102570009F5798F0B92F9927B751B0F0E1F0660F47
:10258000771F881F991F1AF0BA95C9F714C0B13088
:1025900091F00E948F13B1E008950C948F13672F70
:1025A000782F8827B85F39F0B93FCCF386957795B7
:1025B0006795B395D9F73EF49095809570956195A0
:1025C0007F4F8F4F9F4F0895E89409C097FB3EF4CB
:1025D00090958095709561957F4F8F4F9F4F992370
:1025E000A9F0F92F96E9BB279395F69587957795EE
:1025F0006795B795F111F8CFFAF4BB0F11F460FFAE
:102600001BC06F5F7F4F8F4F9F4F16C0882311F005
:1026100096E911C0772321F09EE8872F762F05C019
:10262000662371F096E8862F70E060E02AF09A95B4
:10263000660F771F881FDAF7880F9695879597F9A9
:102640000895990F0008550FAA0BE0E8FEEF161643
:102650001706E807F907C0F012161306E407F50796
:1026600098F0621B730B840B950B39F40A2661F00A
:10267000232B242B252B21F408950A2609F4A140AD
:10268000A6958FEF811D811D089597F99F6780E8BA
:1026900070E060E008959FEF80EC089500240A94B4
:1026A0001616170618060906089500240A9412162D
:1026B0001306140605060895092E0394000C11F460
:1026C000882352F0BB0F40F4BF2B11F460FF04C00D
:1026D0006F5F7F4F8F4F9F4F089557FD9058440F66
:1026E000551F59F05F3F71F04795880F97FB991F71
:1026F00061F09F3F79F0879508951216130614062E
:10270000551FF2CF4695F1DF08C0161617061806BA
:10271000991FF1CF86957105610508940895E89495
:10272000BB2766277727CB0197F908950E94A91345
:102730000C945C130E944E1338F00E94551320F045
:10274000952311F00C9445130C944B1311240C9405
:1027500090130E946D1370F3959FC1F3950F50E095
:10276000551F629FF001729FBB27F00DB11D639F43
:10277000AA27F00DB11DAA1F649F6627B00DA11DE9
:10278000661F829F2227B00DA11D621F739FB00D8F
:10279000A11D621F839FA00D611D221F749F3327FF
:1027A000A00D611D231F849F600D211D822F762F98
:1027B0006A2F11249F5750409AF0F1F088234AF075
:1027C000EE0FFF1FBB1F661F771F881F91505040E1
:1027D000A9F79E3F510580F00C9445130C9490137B
:1027E0005F3FE4F3983ED4F3869577956795B79568
:1027F000F795E7959F5FC1F7FE2B880F911D969582
:0A280000879597F90895F894FFCF2B
:10280A0001000000A401A4010C01001E0300010044
:10281A003F065B4F666D7D077F6F777C395E797106
:10282A00000000005B022E028F020402270214023B
:02283A00050295
:00000001FF
