:100000000C9462000C94010B0C94E40A0C948A008A
:100010000C948A000C948A000C948A000C948A0038
:100020000C948A000C944D090C948A000C948A005C
:100030000C948A000C948A000C94F6080C948A00A4
:100040000C94AC080C948A000C948A000C948A00DE
:100050000C948A000C944F0B0C948A000C948A0028
:100060000C948D070C948A000000000024002700E7
:100070002A0000000000250028002B0000000000DE
:1000800023002600290004040404040404040202DA
:100090000202020203030303030301020408102007
:1000A0004080010204081020010204081020000012
:1000B0000008000201000003040700000000000027
:1000C0000000500B11241FBECFEFD8E0DEBFCDBF24
:1000D00011E0A0E0B1E0E6E4F8E202C005900D9284
:1000E000A233B107D9F723E0A2E3B1E001C01D922A
:1000F000A632B207E1F710E0C2E6D0E004C02197D3
:10010000FE010E94CF11C136D107C9F70E94610BD1
:100110000C9421140C940000ECE1F3E010821182A5
:1001200012821382148215821682178208953F92DA
:100130004F925F926F927F928F929F92AF92BF92F7
:10014000CF92DF92EF92FF920F931F93CF93DF93A3
:10015000CDB7DEB729970FB6F894DEBF0FBECDBF7F
:10016000142F0E9404134B015C0120E030E0A90130
:100170000E945C1200E094E0792E87FF07C0B7FA76
:10018000B094B7F8B09401E023E0722E20E030E0A4
:1001900040E05FE3C501B4010E94F0110E94D31258
:1001A0006B017C011E821D8281E090E0A0E0B0E046
:1001B00089839A83AB83BC83E72DF0E0412E512CD9
:1001C000712C612CAD81BE81AE17BF079CF42981D3
:1001D0003A814B815C81C301B2010E94691169833C
:1001E0007A838B839C832D813E812F5F3F4F3E839B
:1001F0002D83E8CF412C512C80E8682E8FE3782E98
:100200001986812F90E0B0E0A0E08D839E83AF83BC
:10021000B88789819A81AB81BC81C816D906EA0664
:10022000FB0610F19985915099876D817E818F81B0
:1002300098850E9404139B01AC01C301B2010E9486
:1002400061122B013C01AC019B01C501B4010E946C
:10025000B41320E030E040E05FE30E94F0110E9420
:10026000D3126B017C01D5CF20E030E040E85FE3A2
:10027000C301B2010E945C1287FF23C080E4809317
:100280001C0380931D0310921E0380931F03809311
:10029000200329960FB6F894DEBF0FBECDBFDF91C5
:1002A000CF911F910F91FF90EF90DF90CF90BF9073
:1002B000AF909F908F907F906F905F904F903F9006
:1002C0000895C114D104E104F104A9F48FE38093EB
:1002D000200301116CC0F3E0F983998197FDD9CF18
:1002E00095302CF4E92FF0E0E45EFC4F1082898118
:1002F00081508983F2CFB4E0B983912C412E512CE7
:10030000712C612CE985EE2311F011E0E91110E068
:100310008980F82DF150F9833F2E24E02815B0F0A4
:10032000882D90E0DC01A45EBC4F5D01C701B601E1
:10033000A30192010E94AD11605F7E4F17951127B6
:100340001795FB018081182BD5011C93B981B23020
:1003500059F48A948A948982E4E0E31528F0E32D25
:10036000F0E0E45EFC4F1082C701B601A3019201E8
:100370000E94AD1169017A019394C114D104E10482
:10038000F10409F0BFCFA985A91508F0BBCF002360
:1003900009F4A3CFE9812E2F21502983E53008F0FD
:1003A0009CCFF0E0E45EFC4F80E4808396CF32E0A7
:1003B0003983E3E0F6CF20919902260F3327331FCC
:1003C00021323105ECF42091E402FC0190E080E060
:1003D000243069F082E00895A09199022191AC0146
:1003E00049585D4FA40FB52FB11D2C930196861768
:1003F00098F380919902680F6093990280E00895C4
:1004000081E00895089508950895E091750280911E
:100410007402E81730F4F0E0EC5AFD4F808190E070
:1004200008958FEF9FEF0895909175028091740267
:100430002FEF3FEF981748F4E92FF0E0EC5AFD4F0B
:10044000208130E09F5F90937502C90108958091EB
:10045000740290917502891B990B0895CF92DF92D7
:10046000EF92FF920F931F93CF93DF937C01CB0109
:100470008A012091EA02222389F0EB016B01C40E6C
:10048000D51ECC15DD0569F06991D701ED91FC9180
:100490000190F081E02DC7010995F3CF642F0E94F0
:1004A000DB01C801DF91CF911F910F91FF90EF9079
:1004B000DF90CF900895CF93DF931F92CDB7DEB733
:1004C00069832091EA022223F9F020910D03203262
:1004D00058F021E030E0FC013383228390E080E09B
:1004E0000F90DF91CF9108958091EB02E82FF0E01B
:1004F000E451FD4F998190838F5F8093EB0280934D
:100500000D0381E090E0ECCF61E0CE0101960E9406
:10051000DB01F7CF682F80E193E00C945B0290E061
:1005200080E00895833081F028F4813099F08230A2
:10053000A9F008958730A9F08830C9F08430B1F46B
:10054000809180008F7D03C0809180008F778093A1
:100550008000089584B58F7784BD089584B58F7D1C
:10056000FBCF8091B0008F778093B0000895809189
:10057000B0008F7DF9CFCF93DF93282F30E0F901C2
:10058000E255FF4F8491F901E656FF4FD491F901EE
:10059000EA57FF4FC491CC23A1F081110E9492022F
:1005A000EC2FF0E0EE0FFF1FE458FF4FA591B49140
:1005B000EC91ED2381E090E009F480E0DF91CF91B0
:1005C000089580E090E0FACF1F93CF93DF93282F18
:1005D00030E0F901E255FF4F8491F901E656FF4FF3
:1005E000D491F901EA57FF4FC491CC23A9F0162FFB
:1005F00081110E949202EC2FF0E0EE0FFF1FEE58E7
:10060000FF4FA591B4918FB7F894EC91111108C0E8
:10061000D095DE23DC938FBFDF91CF911F9108959A
:10062000DE2BF8CFECEBF0E080818A7B808360E00A
:1006300082E10E94E40260E083E10C94E402109203
:10064000E40281E08093E3021092BE0261E082E165
:100650000E94E40261E083E10E94E402E9EBF0E041
:1006600080818E7F808380818D7F808380E28093F4
:10067000B80085E48093BC000895CF93DF9391E0A8
:1006800090937602882361F0C091B800D091BA00AF
:100690000E9412030E941F03D093BA00C093B800B7
:1006A000DF91CF910895CF93DF9390E0FC01E65660
:1006B000FF4F24918A579F4FFC0184918823C9F0F2
:1006C00090E0880F991FFC01E859FF4FA591B49164
:1006D000FC01EE58FF4FC591D49161110DC09FB739
:1006E000F8948C91209582238C93888128232883E9
:1006F0009FBFDF91CF910895623051F49FB7F89476
:100700003C91822F809583238C93E8812E2BEFCF11
:100710008FB7F894EC912E2B2C938FBFEACF3FB775
:10072000F8948091500290915102A0915202B091A0
:10073000530226B5A89B05C02F3F19F00196A11DB5
:10074000B11D3FBFBA2FA92F982F8827BC01CD011B
:10075000620F711D811D911D43E0660F771F881F79
:10076000991F4A95D1F70895CF92DF92EF92FF92A9
:100770000F931F93CF93DF93D0910D0381E0D1327C
:1007800008F09CC0C0910C030E948F036B017C0198
:100790008091E40281116CC082E08093E40281E0E8
:1007A0008093E3028FEF8093E2021092E102D093F4
:1007B000E002ACEEB2E0E0ECF2E080E0D8138DC0F5
:1007C0001092BF028091BF02CC0FC82BC093BF0212
:1007D0008091BE02813009F084C01092BE020E9456
:1007E0008F036B017C018091BF028093BB008091DD
:1007F000E6029091E702A091E802B091E902892B0C
:100800008A2B8B2BA1F00E948F030091E60210919E
:10081000E7022091E8023091E9026C197D098E0906
:100820009F09061717072807390708F442C0809167
:10083000BC0083FDD8CF85EC8093BC000E948F0361
:100840006B017C018091E402823009F44CC08091FC
:10085000E2028F3F09F469C08091E202803209F41C
:1008600066C08091E202803309F463C084E026C050
:100870008091E6029091E702A091E802B091E9022E
:10088000892B8A2B8B2B09F483CF0E948F03009135
:10089000E6021091E7022091E8023091E9026C191A
:1008A0007D098E099F09061717072807390708F0E1
:1008B0006FCF8091E5020E943D0385E01092EB022C
:1008C00010920D031092EA02DF91CF911F910F91C8
:1008D000FF90EF90DF90CF9008959D9191938F5F5F
:1008E0006DCF85EEA9CF8091E6029091E702A091AD
:1008F000E802B091E902892B8A2B8B2B09F4A2CF55
:100900000E948F030091E6021091E7022091E80215
:100910003091E9026C197D098E099F0906171707A6
:100920002807390708F08ECFC4CF80E0C7CF82E018
:10093000C5CF83E0C3CF9091240321E02093EA0246
:1009400090930C031092EB0210920D03803108F08B
:100950008FE0806E90E00E948A020C94B403909124
:10096000240321E02093EA0290930C031092EB02FF
:1009700010920D0390E0880F991F81680E948A02EF
:100980000C94B403CF93DF938091240391E0909370
:10099000EA0280930C031092EB0210920D0360E0C8
:1009A00080E193E00E945B02CCE1D3E0699180E1B9
:1009B00093E00E945B0290E080E00E948A0283E064
:1009C000C432D80799F7DF91CF910C94B4030E94F9
:1009D0008C000E94C2048091240391E09093EA026B
:1009E00080930C031092EB0210920D0380E290E0D2
:1009F0000E948A020E94B4030C94120310926400B5
:100A000062E084E00E94530361E080E10E945303AE
:100A100061E081E10C94530320913C0130913D0150
:100A2000232B59F470E070933B0160933A0187BD2A
:100A300080916E00826080936E000895CF93DF9363
:100A4000CCE1D3E080E7888710927502109274029F
:100A50001092EB0210920D030E941F0382E092E0BD
:100A6000909398028093970283E092E090939C0287
:100A700080939B02888591E09093EA0280930C0317
:100A800081E290E00E948A020E94B4030E948C00DE
:100A90000E94C20480E00E94AF048FE00E949B0489
:100AA00080913C02DF91CF910C949B040C948C00BC
:100AB000FF920F931F93CF93DF938C01EB01F8808C
:100AC0000E945311F81621F06F2DC8010E945B118E
:100AD000CE01DF91CF911F910F91FF900895CF9399
:100AE000C0910E0384E090E00E945311C81729F0D2
:100AF0006C2F84E090E00E945B11C0910F0385E0B1
:100B000090E00E945311C81729F06C2F85E090E007
:100B10000E945B118EE093E0CF910895CF93DF9315
:100B2000EB010E9453118883CE01DF91CF9108958C
:100B300085ED8093BC008091E6029091E702A09140
:100B4000E802B091E9020796A11DB11D23E0B69518
:100B5000A795979587952A95D1F72091BC0024FDFC
:100B600003C01092E40208954091E6025091E7021A
:100B70006091E8027091E902452B462B472B69F3FF
:100B80000097A105B10541F02AE12A95F1F700C0CF
:100B90000197A109B109E1CF8091E5020C943D03D1
:100BA000CF9380914502909146028330910509F4DC
:100BB0006FC1A0F58130910509F4A7C0029709F42F
:100BC00033C180E00E94AF04C1E080913C0190916C
:100BD0003D01892B09F4C0E08091430290914402C9
:100BE0008130910509F440C0029709F46CC060910E
:100BF0003E0170913F01809140019091410160312F
:100C000027E2720781059105F0F44AE00E949700FF
:100C1000C260C0931E03CF910C94C204853091052D
:100C200009F473C108F463C1069759F681E00E9484
:100C3000AF048CE780931C038CE580931D038093A5
:100C40001F0388E7A2C06C507E4F8F4F9F4F28EE46
:100C500033E040E050E00E94AD11CA01B9014AE022
:100C60000E949700C460D5CF809108012AE0622FCE
:100C70000E947911E82FF0E0E05FFE4F80818093C1
:100C80001C03809129028095879588278795E92FF5
:100C9000F0E0E05FFE4F9081892B80931D038091EF
:100CA00028020E947911E82FF0E0E05FFE4F80817A
:100CB00080931F03E92FF0E0E05FFE4F8081809377
:100CC0002003C061A6CF8CEF80931C038091220289
:100CD00064E60E947911E82F892FF0E0E05FFE4F73
:100CE000908190931D036AE00E947911E82FF0E053
:100CF000E05FFE4F808180931F03E92FF0E0E05F0B
:100D0000FE4F80818093200384CF81E00E94AF0456
:100D1000E0910E01F0910F013197E730F10508F0F5
:100D20007ACFEB56F94F0C94CF119C06C806F0060B
:100D3000DB06000708070D0787EF80931C038091EF
:100D40000E0390910F030097D1F064E670E00E94CB
:100D500085117727FB01E05FFE4F208120931D0363
:100D60006AE070E00E948511605F7E4FFB01208188
:100D700020931F03FC01E05FFE4F808106C08FE3DC
:100D800080931D0381E780931F038093200343CF4B
:100D90008DEE80931C0380913D02882381F364E6ED
:100DA0000E947911E82F892FF0E0E05FFE4F9081DB
:100DB00090931D0308C08CE780931C0380ED809303
:100DC0001D0380913C026AE00E947911E82FF0E057
:100DD000E05FFE4F808180931F03E92FF0E0CBCFCF
:100DE0008CEF80931C0380913E02882341F28FE3B5
:100DF00080931D0384E580931F03109220030BCF83
:100E00008DE680931C0389E780931D0388E7F3CF69
:100E100080E580931C038DE6F7CF8FE380931C035E
:100E200081E780931D03E7CF81E00E94AF048091AA
:100E3000090190910A0182309105D9F060F401977F
:100E400009F0E9CE86E780931C0386EF80931D03AB
:100E500080910801B8CF83309105A1F0049709F083
:100E6000DACE83EF80931C0310921D03809126023B
:100E7000AACF80E180931C0380E980931D038091B9
:100E80002802A1CF8EEB80931C038091270287CF8D
:100E900081E00E94AF0460913E0170913F0180911A
:100EA000400190914101C1E020913C0130913D0110
:100EB000232B09F4C0E06031F7E27F07810591053B
:100EC00028F44AE00E949700CA60A3CE6C507E4F7F
:100ED0008F4F9F4F28EE33E040E050E00E94AD116D
:100EE000CA01B9014AE00E949700CC6092CE83E02B
:100EF0000E94AF0488E380931C038CE580931D035C
:100F00008DE180931F038CE740CF82E00E94AF0405
:100F100089E780931C0380E584CF1F920F920FB660
:100F20000F9211242F933F934F935F936F937F936F
:100F30008F939F93AF93BF93EF93FF938091B900EB
:100F4000887F803609F44AC0F0F5883209F4A7C0DA
:100F500018F5803109F49BC0B8F4882309F4F9C06E
:100F6000883009F494C0FF91EF91BF91AF919F91A8
:100F70008F917F916F915F914F913F912F910F9042
:100F80000FBE0F901F901895883109F488C08032E9
:100F900051F78093E20214C0803409F49DC040F4FC
:100FA0008033B9F38833F9F68093E20285ECB0C060
:100FB000803509F485C0883509F496C0883499F6DF
:100FC0000E949805D0CF883909F48CC038F588374D
:100FD00029F050F4883611F0803729F683E08093A9
:100FE000E4021092BD0257C0883809F47BC08039F2
:100FF00019F0803809F0B7CF8091BD02803208F037
:1010000071C0E091BD0281E08E0F8093BD0280919E
:10101000BB00F0E0E356FD4F80833DC0803B39F0DC
:10102000E0F4803A09F479C0883A09F09CCF84E072
:101030008093E40210929A0210929902E091970232
:10104000F091980209958091990281110FC081E079
:10105000809399021092770209C0803C09F4A6CFD0
:10106000883C09F4A3CF883B09F07DCFE0919A0238
:1010700081E08E0F80939A02F0E0E958FD4F808165
:101080008093BB0090919A028091990229C080912F
:10109000BF028093BB0085EC8093BC0064CF90912D
:1010A000E1028091E002981758F5E091E10281E0B9
:1010B0008E0F8093E102F0E0E054FD4F8081E9CF94
:1010C000E091E10281E08E0F8093E1028091BB000C
:1010D000F0E0E054FD4F80839091E1028091E002C6
:1010E0009817C8F285E8D8CFE091E10281E08E0F31
:1010F0008093E1028091BB00F0E0E054FD4F8083DB
:101100008091E30281115CCF81E08093BE0284EA8A
:101110008093BC001092E40226CF85EC8093BC0043
:101120001092E4028091BD02803230F4E091BD0261
:10113000F0E0E356FD4F10826091BD0270E0E09157
:101140009B02F0919C028DE992E009951092BD02FC
:101150000ACF1092E20234CF1F920F920FB60F9275
:1011600011242F933F938F939F93AF93BF938091BD
:101170004C0290914D02A0914E02B0914F023091DD
:101180004B0226E0230F2D3758F50296A11DB11D05
:1011900020934B0280934C0290934D02A0934E02F9
:1011A000B0934F028091500290915102A09152024F
:1011B000B09153020196A11DB11D809350029093EE
:1011C0005102A0935202B0935302BF91AF919F91ED
:1011D0008F913F912F910F900FBE0F901F901895F8
:1011E00029E8230F0396A11DB11DD2CF1F920F92A4
:1011F0000FB60F9211242F933F934F935F936F93EA
:101200007F938F939F93AF93BF93EF93FF938091BF
:1012100039018823E1F1429A439810923901809173
:101220003C0190913D019C012F5F3F4F30933D0168
:1012300020933C0120913A0130913B012817390756
:10124000A8F480916E008D7F80936E004298439841
:1012500010923D0110923C0180912302823031F4C2
:10126000109223026EEF84E10E940C05FF91EF9132
:10127000BF91AF919F918F917F916F915F914F91AE
:101280003F912F910F900FBE0F901F90189542988D
:10129000439A81E080933901C2CF1F920F920FB61B
:1012A0000F9211248F929F92AF92BF92CF92DF92B2
:1012B000EF92FF922F933F934F935F936F937F93A0
:1012C0008F939F93AF93BF93CF93EF93FF93289800
:1012D00080EE8093B200C0912902CF5FC0932902B3
:1012E00080910B01813051F48093480290913D022E
:1012F000992331F0815080930B0102C08111F6CF08
:101300008091040190910501009729F00197909335
:1013100005018093040180913801882321F1ECE1DB
:10132000F2E02DE641E050E060E070E092918291C1
:1013300093838283B0E0A0E0481759076A077B07D0
:1013400020F4203610F4AC01BD01215079F7409310
:101350000001509301016093020170930301109208
:1013600043011092420180913801882309F4B4C0EE
:1013700010923801C0903E01D0903F01E0904001B2
:10138000F09041018091380290913902A0913A0287
:10139000B0913B028C159D05AE05BF0540F4C0928F
:1013A0003802D0923902E0923A02F0923B02609108
:1013B00034027091350280913602909137026C0DA3
:1013C0007D1D8E1D9F1D60933402709335028093A6
:1013D0003602909337028090300290903102A090B4
:1013E0003202B0903302680D791D8A1D9B1D20E1E9
:1013F0003EE040E050E00E94AD1149015A01809268
:10140000300290923102A0923202B0923302CC3379
:1014100009F09DC010922902C0912802CF5FC093AD
:10142000280280912402882319F08150809324029D
:10143000CD28CE28CF2829F4809137018F5F809363
:101440003701809137018B3088F08091240281111F
:101450000DC00E94560585E090E09093460280936F
:10146000450282E0809323021092370181E080934D
:101470004002CC3349F410922802809108018F5F1A
:10148000883171F180930801809126028C3018F028
:101490008BE08093260280912602811103C081E0B7
:1014A00080932602109236011092350181E293E07A
:1014B00020913501309136012F5F3F4F3093360137
:1014C00020933501289A20E030912602231708F056
:1014D00061C000002F5FF8CF81E0809338014ACFD0
:1014E0001092080180912A0290912B02019690930C
:1014F0002B0280932A0280912C0290912D02A091C0
:101500002E02B0912F02880E991EAA1EBB1E809239
:101510002C0290922D02A0922E02B0922F021092D5
:101520003402109235021092360210923702109255
:101530003002109231021092320210923302109255
:1015400038021092390210923A0210923B028091B6
:10155000290280FF99CF81E080934202809341026B
:10156000FF91EF91CF91BF91AF919F918F917F911B
:101570006F915F914F913F912F91FF90EF90DF908E
:10158000CF90BF90AF909F908F900F900FBE0F9015
:101590001F9018952898109285001092840025E6D7
:1015A0002A95F1F700002091840030918500209366
:1015B000340120913401222319F028982898CBCFA8
:1015C000019709F075CFFACF1F920F920FB60F92C5
:1015D00011248F939F93EF93FF932898E2E4F1E017
:1015E0008081918101969183808381E080933F0285
:1015F000FF91EF919F918F910F900FBE0F901F90D1
:1016000018951F920F920FB60F9211242F933F93AC
:101610004F935F936F937F938F939F93AF93BF93FA
:10162000EF93FF9383B78E7F83BF80914902882316
:1016300029F010924902F0E0E0E0099580913D0226
:10164000882359F18F5F80930B011092460210920C
:10165000450281E08093470210923F0264E186E1F7
:101660000E940C05109244021092430283E090E025
:1016700090930D0180930C01FF91EF91BF91AF9179
:101680009F918F917F916F915F914F913F912F919A
:101690000F900FBE0F901F9018958DE3D4CF189523
:1016A000E0E1F3E01382128288EE93E0A0E0B0E084
:1016B00084839583A683B78384E291E091838083BA
:1016C0000895CF93DF9300D000D01F92CDB7DEB73F
:1016D000789484B5826084BD84B5816084BD85B50D
:1016E000826085BD85B5816085BD80916E00816019
:1016F00080936E00109281008091810082608093BF
:1017000081008091810081608093810080918000C0
:101710008160809380008091B10084608093B100EB
:101720008091B00081608093B00080917A008460E5
:1017300080937A0080917A00826080937A00809111
:101740007A008E7F80937A0080917A0080688093FF
:101750007A001092C10061E088E00E94530360E0CB
:1017600088E00E94E40260E083E00E94530360E0AE
:1017700082E00E9453030E94FE041092B100809107
:10178000B60080628093B60080EE8093B20080E263
:101790008093B3001092B4001092B00087E0809361
:1017A000B10081E0809370001092800080918100F0
:1017B000866080938100809181008E7F809381007C
:1017C000809164008F7D8093640084B5826084BDC5
:1017D00085B5826085BD83EC87BD16BC66E272E08C
:1017E00080E190E00E948E056EE372E090E080E080
:1017F0000E948E0567E272E088E090E00E948E050C
:101800006DE372E082E090E00E948E0584E090E05B
:101810000E94531180930E0385E090E00E945311C3
:1018200080930F0365E272E080E290E00E948E05F3
:101830006CE372E080E890E00E948E0580912602C1
:101840008F3FD9F080913E028F3FB9F080912702FF
:101850008F3F99F080913D028F3F79F080910E0388
:1018600090910F038F3F910541F0809125028F3FAA
:1018700021F080913C028F3FE9F582E080932602BF
:1018800081E080933E029EE6909327029EE1909332
:101890003D0220E530E030930F0320930E03809348
:1018A000250283E080933C0266E272E080E190E0F2
:1018B0000E9458056EE372E090E080E00E945805B7
:1018C00067E272E088E090E00E9458056DE372E004
:1018D00082E090E00E9458050E946F0565E272E088
:1018E00080E290E00E9458056CE372E080E890E0AE
:1018F0000E94580581E08093400288E0809369004F
:10190000E99A0E941E050E948C000E94C20486E093
:1019100090E090934602809345020E94D005109279
:101920004602109245022FEF89E698E1215080404F
:101930009040E1F700C000000E945605789401E055
:1019400010E0B3E0AB2EB12C84E0882E912C92E015
:10195000292E312C80914A028823E9F010924A0204
:101960000E94E70491E09DBB10926E0010926F0000
:101970001092700015B818B884E08BB914B817B875
:101980001AB885E083BF80916400856A8093640003
:1019900090934902889580914802882309F456C0A3
:1019A000109248020E94E70480916E008D7F809320
:1019B0006E008091B60084FDFCCF1CBC10927A00B2
:1019C00010923D0110923C0161E088E00E945303B7
:1019D00060E088E00E94E40260E082E00E9453033D
:1019E00060E083E00E94530360E084E00E945303C0
:1019F00060E085E00E94530360E080E10E945303B1
:101A000060E081E10E94530360E082E00E94E40212
:101A100060E084E00E94E40260E083E00E94E4026F
:101A200060E085E00E94E40260E080E10E94E40260
:101A300060E081E10E94E40287E083BF809164005E
:101A4000856280936400E89A10920B0180914702AE
:101A5000882301F1109247020E94FE04E89860E09A
:101A600088E00E94E40210930F0100930E0110928F
:101A70004602109245021092440210924302B09224
:101A80000D01A0920C010E941E050E94560581E0E6
:101A90008093420280914902811102C280914102E9
:101AA000882309F44CC11092410219821A821B82C8
:101AB0001C82C0900401D0900501E0900601F090D6
:101AC000070181E049815A816B817C81E82FF0E038
:101AD000EE0FFF1FEE5BFE4F20813181420F531F3F
:101AE000611D711D49835A836B837C838A3009F0A1
:101AF0005BC049815A816B817C81463057446105C6
:101B00007105B8F029813A814B815C81ABE0B0E08E
:101B10000E94D51169837A838B839C8324E1E2162A
:101B2000F10419F044E1C42ED12C34E1E32EF12C60
:101B30008EE68F5F8E3630F2F0920701E09206015A
:101B4000D0920501C0920401C114D10409F49EC0D1
:101B5000C7018C199D098530910508F497C09695A9
:101B600087958D8319821A821B821C8261E09927D6
:101B70000196462F50E0841795070CF46CC04980FD
:101B80005A806B807C80440F551FFA01EE5BFE4F3C
:101B900020813181420E531E611C711C49825A8280
:101BA0006B827C826F5FE5CF8C3121F549815A8150
:101BB0006B817C8141325E446105710508F4B9CFC7
:101BC00089819A81AB81BC8122E0880F991FAA1F6D
:101BD000BB1F2A95D1F789839A83AB83BC83E7E344
:101BE000EE16F10419F0A7E3CA2ED12CF7E3EF2E7D
:101BF000F12C9ECF873309F549815A816B817C8115
:101C00004B3F51056105710508F493CF89819A8195
:101C1000AB81BC81880F991FAA1FBB1F89839A8340
:101C2000AB83BC832EE6E216F10419F07EE6C72EE4
:101C3000D12C6EE6E62EF12C7BCF8D3609F079CFD4
:101C40009CEDE916F10419F05CEDC52ED12C4CED9C
:101C5000E42EF12C6ECF29813A814B815C81ACE47A
:101C6000B4E00E94D511ED812E2F30E050E040E02D
:101C70000E94AD11CA01B9012AE030E040E050E015
:101C80000E94AD1129833A834B835C8349815A8139
:101C90006B817C8140933E0150933F0160934001F2
:101CA0007093410180910E0390910F032C01712CD0
:101CB000612C441655066606770608F040C0209150
:101CC000240221113CC0892BD1F1EC18FD0826E03B
:101CD000E216F104A0F180910B0181111AC083B7C3
:101CE0008E7F83BF8DE380930B010E94FE04E898F2
:101CF0002898409A10930F0100930E0110930A0147
:101D0000009309010E941E050E94560581E0809300
:101D1000420282E0809323026EEF84E10E940C0570
:101D20008091450290914602039711F00E9456055A
:101D3000B0924602A092450281E080934202F09068
:101D40000B01FF2029F08091420281110E94D005F1
:101D500080914002882309F448C0FF2009F445C05F
:101D6000109240028EE880937A008EE680937C0089
:101D700023B783E083BF8BE791E00197F1F700C0C1
:101D8000000080917A00806480937A00889580E4D6
:101D900090917A00906490937A0088958150C1F771
:101DA00010927A0023BF6091790080912702EFEFB3
:101DB0008E9FC001112470E00E949911603421E0CF
:101DC00072070CF068C280912402811109C00E9440
:101DD000560582E08093230290924602809245024B
:101DE00060E471E060546093220280910B018823CB
:101DF00009F444C080910C0190910D01833091054C
:101E0000A9F482E00E94BB02892B09F05AC010930A
:101E10000D0100930C0164E186E10E940C058091A4
:101E20000C0190910D018330910541F120913D020B
:101E300031E0320F211101C03DE330930B0140919D
:101E40004502509146024230510509F46CC108F038
:101E500044C04115510509F44EC04130510509F403
:101E600077C09FEFE3EC29E09150E0402040E1F79C
:101E700000C00000B0920D01A0920C0180913F02C1
:101E8000882371F080910B01882391F080913E02AC
:101E9000882351F010923F0261E48EE00E940C050D
:101EA00080910B01882321F080914902882309F059
:101EB000889580E090E0892B09F44CCD0E940000C9
:101EC00040CD84E00E94BB02892BC1F630920D0107
:101ED00020920C0164E182E1A0CF4730510508F067
:101EE000C0CF10924602109245020E94560585E02E
:101EF000809324021AC08130910561F0029709F0A5
:101F0000B0CF109346020093450210930F01009347
:101F10000E01D0C02091430230914402213031059E
:101F200069F038F02230310571F081E0809342028F
:101F300098CF9093440280934302F7CF30924402AB
:101F400020924302F2CF1092440210924302EDCF4E
:101F500081309105C9F08230910539F720910E0149
:101F600030910F012330310509F4CEC008F0A9C02B
:101F70002130310509F4CFC022303105B1F6B092DD
:101F80000F01A0920E01D1CFE0910E01F0910F014F
:101F90003197E730F10548F6E053F04F0C94CF113C
:101FA000D70FFC0F1A100C1025102E105D10809109
:101FB0000E0390910F0388329105C1F038F4892BFC
:101FC00071F010920F0310920E03AFCF8035910580
:101FD00081F088379105A9F784EF91E002C088E28B
:101FE00090E090930F0380930E039FCF80E590E0E5
:101FF000F8CF88E790E0F5CF2E3141F02C3351F047
:102000008EE1222321F010923D028FCF8CE380934A
:102010003D028BCF88E7FBCF80913C028F3040F4AC
:102020008F5F80933C0280913C020E949B047DCF95
:1020300081E0F7CF80913E02882319F010923E0292
:1020400074CF81E080933E0270CF3092460220929E
:10205000450210930A01009309012CC01092380226
:102060001092390210923A0210923B0210923402FE
:1020700010923502109236021092370210923002FE
:1020800010923102109232021092330210922C02FE
:1020900010922D0210922E0210922F0210922B02FB
:1020A00010922A0210930F0100930E011092460223
:1020B000109245020E94560538CF81E080934A0273
:1020C00034CF2530310561F120F12730310509F099
:1020D0002CCFF8946EE372E090E080E00E94580507
:1020E0006DE372E082E090E00E9458050E946F0567
:1020F0006CE372E080E890E00E94580578941092BA
:1021000046021092450201CF90920F0180920E017B
:102110000CCF85E090E090930F0180930E0105CFE6
:1021200087E090E0F8CF81309105D9F082309105B9
:1021300009F0FBCE2091090130910A0123303105CD
:1021400009F48DC008F06DC02130310509F482C05A
:102150002230310509F0E9CEB0920A01A0920901BE
:10216000E4CE8091090190910A0183309105D9F163
:1021700070F48130910539F1029709F0D6CE809143
:1021800028028B3368F58F5F8093280223C0843048
:102190009105B9F1059709F0C8CE8091250281110A
:1021A0003BC081E08093250284EA91E0909307018F
:1021B000809306018091060190910701909305019B
:1021C00080930401B2CE80910801873130F48F5F93
:1021D0008093080110922902A8CE10920801FACF2C
:1021E00010922802F7CF809127029CE9980F8F5F09
:1021F000983108F084E68093270281E080934002C2
:1022000094CE809126029FEF980F8F5F9A3008F04E
:1022100081E08093260289CE109225028CED90E019
:10222000C5CF2430310501F12530310509F07DCECF
:10223000F89467E272E088E090E00E94580566E258
:1022400072E080E190E00E94580565E272E080E271
:1022500090E015C090930A018093090166CE909298
:102260000A018092090161CEF89467E272E088E089
:1022700090E00E94580566E272E080E190E00E94E2
:1022800058057894109246021092450210930F015F
:1022900000930E01DECE653A81E0780708F4A2CD06
:1022A00064EA71E09FCDF999FECF92BD81BDF89AA5
:1022B000992780B50895262FF999FECF1FBA92BDB0
:1022C00081BD20BD0FB6F894FA9AF99A0FBE019617
:1022D0000895DB018F939F930E94D511BF91AF9119
:1022E000A29F800D911DA39F900DB29F900D112470
:1022F0000895991B79E004C0991F961708F0961B62
:10230000881F7A95C9F780950895AA1BBB1B51E1D8
:1023100007C0AA1FBB1FA617B70710F0A61BB70B55
:10232000881F991F5A95A9F780959095BC01CD01FA
:10233000089597FB072E16F4009407D077FD09D077
:102340000E94851107FC05D03EF4909581959F4F22
:102350000895709561957F4F0895A1E21A2EAA1BEA
:10236000BB1BFD010DC0AA1FBB1FEE1FFF1FA21745
:10237000B307E407F50720F0A21BB30BE40BF50B42
:10238000661F771F881F991F1A9469F760957095CB
:10239000809590959B01AC01BD01CF010895EE0F92
:1023A000FF1F0590F491E02D09940E94E011A59F74
:1023B000900DB49F900DA49F800D911D1124089540
:1023C000A29FB001B39FC001A39F700D811D112476
:1023D000911DB29F700D811D1124911D08955058BB
:1023E000BB27AA270E9407120C947A130E946C1331
:1023F00038F00E94731320F039F49F3F19F426F44B
:102400000C9469130EF4E095E7FB0C946313E92F29
:102410000E948B1358F3BA17620773078407950756
:1024200020F079F4A6F50C94AD130EF4E0950B2E84
:10243000BA2FA02D0B01B90190010C01CA01A00116
:102440001124FF27591B99F0593F50F4503E68F171
:102450001A16F040A22F232F342F4427585FF3CFB2
:10246000469537952795A795F0405395C9F77EF483
:102470001F16BA0B620B730B840BBAF09150A1F0CC
:10248000FF0FBB1F661F771F881FC2F70EC0BA0F52
:10249000621F731F841F48F4879577956795B795DA
:1024A000F7959E3F08F0B0CF9395880F08F09927D5
:1024B000EE0F9795879508950E943F1308F481E0E9
:1024C00008950E9475120C947A130E94731358F0A9
:1024D0000E946C1340F029F45F3F29F00C946313C1
:1024E00051110C94AE130C9469130E948B1368F372
:1024F0009923B1F3552391F3951B550BBB27AA27BD
:1025000062177307840738F09F5F5F4F220F331FF6
:10251000441FAA1FA9F335D00E2E3AF0E0E832D0BE
:1025200091505040E695001CCAF72BD0FE2F29D0C1
:10253000660F771F881FBB1F261737074807AB0793
:10254000B0E809F0BB0B802DBF01FF2793585F4F08
:102550003AF09E3F510578F00C9463130C94AE133F
:102560005F3FE4F3983ED4F3869577956795B795EA
:10257000F7959F5FC9F7880F911D9695879597F9F5
:102580000895E1E0660F771F881FBB1F621773076E
:102590008407BA0720F0621B730B840BBA0BEE1F83
:1025A00088F7E09508950E94931388F09F5798F05C
:1025B000B92F9927B751B0F0E1F0660F771F881F48
:1025C000991F1AF0BA95C9F714C0B13091F00E9462
:1025D000AD13B1E008950C94AD13672F782F8827C1
:1025E000B85F39F0B93FCCF3869577956795B39589
:1025F000D9F73EF490958095709561957F4F8F4FF8
:102600009F4F0895E89409C097FB3EF490958095FC
:10261000709561957F4F8F4F9F4F9923A9F0F92FA8
:1026200096E9BB279395F695879577956795B79526
:10263000F111F8CFFAF4BB0F11F460FF1BC06F5F0C
:102640007F4F8F4F9F4F16C0882311F096E911C01E
:10265000772321F09EE8872F762F05C0662371F03F
:1026600096E8862F70E060E02AF09A95660F771F53
:10267000881FDAF7880F9695879597F90895990F2F
:102680000008550FAA0BE0E8FEEF16161706E8073C
:10269000F907C0F012161306E407F50798F0621B5D
:1026A000730B840B950B39F40A2661F0232B242B32
:1026B000252B21F408950A2609F4A140A6958FEF51
:1026C000811D811D089597F99F6780E870E060E0A3
:1026D00008959FEF80EC089500240A9416161706BB
:1026E00018060906089500240A9412161306140603
:1026F00005060895092E0394000C11F4882352F066
:10270000BB0F40F4BF2B11F460FF04C06F5F7F4F1D
:102710008F4F9F4F089557FD9058440F551F59F004
:102720005F3F71F04795880F97FB991F61F09F3FBE
:1027300079F087950895121613061406551FF2CFE7
:102740004695F1DF08C0161617061806991FF1CF37
:1027500086957105610508940895E894BB2766275E
:102760007727CB0197F908950E94C7130C947A1329
:102770000E946C1338F00E94731320F0952311F01F
:102780000C9463130C94691311240C94AE130E94DF
:102790008B1370F3959FC1F3950F50E0551F629F07
:1027A000F001729FBB27F00DB11D639FAA27F00DAA
:1027B000B11DAA1F649F6627B00DA11D661F829FD1
:1027C0002227B00DA11D621F739FB00DA11D621FB6
:1027D000839FA00D611D221F749F3327A00D611DD3
:1027E000231F849F600D211D822F762F6A2F1124B5
:1027F0009F5750409AF0F1F088234AF0EE0FFF1FE8
:10280000BB1F661F771F881F91505040A9F79E3F3E
:10281000510580F00C9463130C94AE135F3FE4F306
:10282000983ED4F3869577956795B795F795E79594
:102830009F5FC1F7FE2B880F911D9695879597F99D
:062840000895F894FFCF9B
:1028460001000000DC00DC000C01001E030001009A
:102856003F065B4F666D7D077F6F777C395E7971CA
:10286600000000005B022E028F02040227021402FF
:02287600050259
:00000001FF
