:100000009DC032C179C1B5C0B4C0B3C0B2C0B1C027
:10001000B0C0A9C1AEC0ADC0ACC0ABC059C3A9C0CF
:10002000A8C0A7C0A6C0A5C0A4C0EAC0A2C0A1C065
:10003000A0C09FC000000000000000000000000001
:1000400000000000000000000000000000F8FE06B4
:100050000383C363331EFEF800071F1E33313030A5
:1000600030181F070000000C0C0EFFFF00000000FE
:100070000000003030303F3F30303000001C1E07A1
:10008000030383C3E3773E1C0030383C3E373331F3
:1000900030303030000C0E07C3C3C3C3C3E77E3C0F
:1000A000000C1C383030303030391F0E00C0E0708A
:1000B000381C0E07FFFF00000003030303030303C4
:1000C0003F3F0303003F7F636363636363E3C38373
:1000D000000C1C383030303030381F0F00C0F0F8C2
:1000E000DCCEC7C3C3C38000000F1F3930303030AF
:1000F00030391F0F00030303030303C3F33F0F0350
:1001000000000000303C0F03000000000000BCFEB7
:10011000E7C3C3C3E7FEBC00000F1F3930303030E7
:1001200030391F0F003C7EE7C3C3C3C3C3E7FEFCE7
:10013000000000303030381C0E07030011241FBEB1
:10014000CFEFD4E0DEBFCDBF13E0A0E0B1E0E6EE3C
:10015000FCE102C005900D92AA35B107D9F724E061
:10016000AAE5B3E001C01D92AD37B207E1F7E3DACB
:10017000B8CD46CF809102018D3018F08CE080938D
:10018000020180910201823018F482E08093020122
:10019000109295031092940320E030E08091940334
:1001A0009091950301969093950380939403289AD8
:1001B0009091020180E002C000008F5F8913FCCFA4
:1001C000289810928500109284004AE54A95F1F72C
:1001D00000C0809184009091850080937A04809182
:1001E0007A04882321F0289884EF91E001C0C901A6
:1001F0009C012F5F3F4F843F914080F228980895E3
:100200001F920F920FB60F9211242F933F934F938B
:100210005F936F937F938F939F93AF93BF9320913F
:100220007B0430917C0480910401609179004FEF50
:10023000849FC001112470E061507109D4DC620F09
:10024000731F70937C0460937B04BF91AF919F9167
:100250008F917F916F915F914F913F912F910F906F
:100260000FBE0F901F9018951F920F920FB60F920E
:1002700011242F933F934F935F936F937F938F93AB
:100280009F93AF93BF93EF93FF9383B78E7F83BF0B
:1002900080918203882339F010928203E0915A03FF
:1002A000F0915B03099580910601882311F08F5F1F
:1002B00001C08DE38093110180910701882311F023
:1002C0008F5F01C08DE38093100181E080938803EC
:1002D00085E080937A03FF91EF91BF91AF919F9159
:1002E0008F917F916F915F914F913F912F910F90DF
:1002F0000FBE0F901F9018951F920F920FB60F927E
:1003000011242F933F934F935F936F937F938F931A
:100310009F93AF93BF93EF93FF9328988091960399
:1003200090919703019690939703809396038997F2
:1003300010F020DF04C08AE18A95F1F700C081E067
:1003400080937C03FF91EF91BF91AF919F918F912B
:100350007F916F915F914F913F912F910F900FBEC1
:100360000F901F9018951F920F920FB60F921124A5
:100370002F933F934F935F936F937F938F939F93AD
:10038000AF93BF93EF93FF93289880EE8093B200D2
:10039000809180038F5F8093800380911101813071
:1003A00011F48093890380911001813009F4419800
:1003B00080911101882339F090910601992319F059
:1003C00081508093110180911001882339F0909120
:1003D0000701992319F081508093100180910C013D
:1003E000882319F0815080930C0180918A0388231F
:1003F00021F1E2E7F4E081E090E0A0E0B0E02EE659
:10040000529142915383428360E070E084179507D4
:10041000A607B70720F4203610F4DB01CA012150EB
:1004200079F78093080190930901A0930A01B09392
:100430000B01109297031092960380918A038823F0
:1004400019F010928A0303C081E080938A0380919F
:10045000710390917203A0917303B0917403409162
:1004600061035091620360916303709164034817C4
:1004700059076A077B0740F48093610390936203F6
:10048000A0936303B09364034091650350916603A6
:10049000609167037091680341155105610571050D
:1004A00089F0480F591F6A1F7B1F769567955795EE
:1004B0004795409365035093660360936703709379
:1004C000680308C08093650390936603A093670355
:1004D000B0936803209180032C3309F088C01092F8
:1004E000800320917F032F5F20937F032091870358
:1004F000222319F0215020938703892B8A2B8B2BE1
:1005000029F4809185038F5F809385038091850313
:100510008B3040F080918703811104C042DA85E07E
:1005200080937B0381E080938B0380917F038C33E6
:1005300009F05DC010927F0320910F012F5F20937F
:100540000F018091650390916603A0916703B091BC
:10055000680340916D0350916E0360916F03709139
:100560007003840F951FA61FB71F80936D03909390
:100570006E03A0936F03B093700310926503109203
:1005800066031092670310926803283181F5109278
:100590000F0120915D0330915E032F5F3F4F309339
:1005A0005E0320935D034091690350916A0360915B
:1005B0006B0370916C03480F591F6A1F7B1F409398
:1005C000690350936A0360936B0370936C031092FA
:1005D0006D0310926E0310926F03109270031092CD
:1005E000610310926203109263031092640380917E
:1005F000800380FFBFDD81E080937E0380938103D1
:10060000FF91EF91BF91AF919F918F917F916F91EA
:100610005F914F913F912F910F900FBE0F901F90C0
:100620001895CF92DF92EF92FF920F93CF93DF93C3
:10063000FC013AE0321BDF0124E0329FE00111248B
:10064000CF5CDC4FC880D980EA80FB803F5F20E030
:1006500005C02F5F4C195D096E097F094C155D05BA
:100660006E057F05B0F7205D2D933A3028F31C927C
:1006700001110BC005C0818181119083319601C0A9
:1006800090E280818033B9F305C0FC01019620819E
:100690002033D9F3CF01DF91CF910F91FF90EF90ED
:1006A000DF90CF90089520915F0330916003232B5A
:1006B00071F49AE0699FB0011124709377046093FC
:1006C000760487BD80916E00826080936E000895ED
:1006D0001F920F920FB60F9211242F933F934F93B7
:1006E0005F936F937F938F939F93AF93BF93EF939A
:1006F000FF9380917D03882329F04498439A1092B8
:100700007D0305C04398449A81E080937D038091E6
:100710005F03909160032091760430917704AC01DF
:100720004F5F5F4F5093600340935F032817390773
:1007300098F480916E008D7F80936E00449843986A
:100740001092600310925F0380918603823021F43F
:10075000109286036EEFA7DFFF91EF91BF91AF91EB
:100760009F918F917F916F915F914F913F912F91C9
:100770000F900FBE0F901F9018956F927F929F92CF
:10078000AF92BF92CF92DF92EF92FF920F931F939F
:10079000CF93DF931F92CDB7DEB738E9632E33E0F6
:1007A000732EB12C4EE0A42E5EE0E52EF12C0FEF5F
:1007B00010E066E0C62ED12CF301819191913F01AA
:1007C000A89EB001A99E700D112480E090E02091B8
:1007D00008013091090140910A0150910B0116DA8C
:1007E000273060F42223A1F0C601821B9109902FCB
:1007F00001C0990F8A95EAF7912C0CC0C701821BA2
:100800009109902E01C0990C8A95EAF79FEF02C0DA
:10081000912C90EC65E08B2D99830CD99981692FEF
:100820006F7781E0A6D864E08B2D04D9692D81E033
:10083000A0D8B394F1E6BF12BFCF0F90DF91CF9154
:100840001F910F91FF90EF90DF90CF90BF90AF90EE
:100850009F907F906F900895CF92DF92EF92FF92DA
:100860000F9380917B03833009F4C8C330F4813047
:1008700009F4CBC1823049F497C2853009F4EDC345
:1008800008F4DFC38A3009F4F4C320E042E06AE4EC
:1008900082E191E075D980910C0124E6829FC0012C
:1008A000112460910D0170E09ED9672B49F0809171
:1008B000800380FD05C041E065E088E692E034C039
:1008C00040917103509172036091730370917403AE
:1008D0004F3936E8530731E06307710558F400E0FB
:1008E00025E08CE893E09DDE20E041E06AE48BE3C4
:1008F00091E015C0CB01BA0128EE33E040E050E0B2
:1009000085D969017A0100E025E0B701A6018CE8EC
:1009100093E087DE20E041E06AE48BE491E030D9A7
:1009200041E065E08CE893E0DED840910F0150E0B3
:1009300060E070E000E022E08CE893E072DE20E00E
:1009400047E065E08CE893E01BD920E047E062E1F6
:1009500086E191E015D940917F0350E060E070E0BE
:1009600001E022E08CE893E05CDE20E047E067E114
:100970008CE893E005D920E047E06BE388E191E063
:10098000FFD84091930350E060E070E023E08CE8F2
:1009900093E047DE20E047E061E48CE893E0F0D8A4
:1009A00020E043E064E08FE191E0EAD840910D015E
:1009B00050E060E070E000E023E08CE893E031DE9E
:1009C00020E043E06CE18CE893E0DAD820910C0160
:1009D0003CE93203C001112460910D0170E003D99C
:1009E000AB014C595F4F662757FD6095762F23E08A
:1009F0008CE893E016DE20E043E060E48CE893E0CE
:100A0000BFD880918403813009F483C0823009F417
:100A1000B8C080916D0390916E03A0916F03B09167
:100A200070034091690350916A0360916B03709168
:100A30006C03840F951FA61FB71F8F309742A10527
:100A4000B10558F520E046E064E08FE291E098D8E7
:100A500040915D0350915E0360E070E023E08CE81C
:100A600093E0DFDD20E046E065E18CE893E088D8A4
:100A700040916D0350916E0360916F03709170030C
:100A80008091690390916A03A0916B03B0916C030C
:100A9000480F591F6A1F7B1F5EC020E046E064E0DC
:100AA0008FE391E06DD840915D0350915E0360E06B
:100AB00070E000E023E08CE893E0B3DD20E046E066
:100AC00065E18CE893E05CD860916D0370916E03F2
:100AD00080916F0390917003C0906903D0906A0376
:100AE000E0906B03F0906C036C0D7D1D8E1D9F1DBF
:100AF00028EE33E040E050E089D869017A0124E033
:100B0000B701A6018CE893E08CDD20E046E064E3C9
:100B100095C220E046E064E08FE491E031D8809116
:100B20006D0390916E03A0916F03B091700320E06C
:100B300046E064E38F309742A105B10570F487E386
:100B400091E01ED840916D0350916E0360916F0348
:100B50007091700300E024E0D5CF87E491E010D8D5
:100B600060916D0370916E0380916F03909170039B
:100B700028EE33E040E050E049D869017A0100E016
:100B8000BECF20E046E064E088E591E0F9D78091AF
:100B9000610390916203A0916303B0916403873E67
:100BA0009340A105B10588F420E046E06EE280E8BC
:100BB00091E0E6D740916103509162036091630335
:100BC0007091640300E023E019C020E046E06EE28B
:100BD00080E691E0D5D760916103709162038091C6
:100BE00063039091640328EE33E040E050E00ED8B8
:100BF00069017A0100E023E0B701A6018CE893E0E7
:100C000010DD20E046E06EE219C221E040E060E045
:100C100089E691E0B5D78091000190910101309172
:100C20000E0121E0892BF1F0313009F020E041E0A4
:100C300064E08AE791E0A4D740910001509101015E
:100C400060E070E000E024E08CE893E0EADC21E082
:100C500080910E01813009F020E041E062E28CE8F1
:100C600093E007C0313009F020E041E064E089E81A
:100C700091E086D79091070180910E0121E092309A
:100C800041F4823009F020E042E064E088E991E03C
:100C900026C09923E9F0823009F020E042E064E0C8
:100CA00087EA91E06DD74091070150E060E070E085
:100CB00000E023E08CE893E0B4DC21E080910E01B9
:100CC000823009F020E042E06EE28CE893E007C059
:100CD000823009F020E042E064E086EB91E050D7FA
:100CE0009091060180910E0121E09923E9F0833073
:100CF00009F020E043E064E085EC91E041D74091C9
:100D0000060150E060E070E000E023E08CE893E052
:100D100088DC21E080910E01833009F020E043E07F
:100D20006CE18CE893E007C0833009F020E043E0F9
:100D300064E084ED91E024D79091050180910E014B
:100D400021E0992341F0843009F020E044E064E0A0
:100D500083EE91E007C0843009F020E044E064E0D5
:100D600082EF91E00DD721E080910E01853009F0EE
:100D700020E045E064E081E092E002D721E080914C
:100D80000E01863009F020E046E064E080E192E068
:100D9000F7D621E080910E01873009F020E047E08E
:100DA00064E08FE192E082C121E040E060E08EE209
:100DB00092E0E6D621E041E060E08FE392E0E0D609
:100DC000409194035091950360E070E000E023E0CF
:100DD0008CE893E026DC21E041E068E48CE893E0D5
:100DE000CFD620E043E064E080E592E0C9D64091B0
:100DF0000F0150E060E070E022E08CE893E011DC4D
:100E000021E080910E01813009F020E043E068E2AA
:100E10008CE893E0B5D640917F0350E060E070E04D
:100E200001E022E08CE893E0FCDB21E080910E0100
:100E3000823009F020E043E06AE38CE893E0A0D63A
:100E40004091800350E060E070E001E022E08CE837
:100E500093E0E7DB20E043E06CE48CE893E090D69D
:100E600090915C0380910E0121E0992341F0833041
:100E700009F020E044E064E08FE592E007C08330B1
:100E800009F020E044E064E08EE692E079D621E0CB
:100E900080910E01843009F020E045E064E08DE7A8
:100EA00092E06ED68091030140EA50E0481B510960
:100EB000662757FD6095762F00E023E08CE893E0ED
:100EC000B0DB21E080910E01843009F020E045E0A4
:100ED00060E48CE893E054D621E080910E018530E7
:100EE00009F020E046E064E08CE892E049D64091C9
:100EF000040150E060E070E000E023E08CE893E063
:100F000090DB21E080910E01853009F020E046E081
:100F10006CE18CE893E034D6809178049091790468
:100F200068EE73E04CD664E670E049D6AB0160E051
:100F300070E000E021E08CE893E073DB21E0809139
:100F40000E01853009F020E046E06AE38CE893E08A
:100F500017D6809178049091790464E670E02FD6DA
:100F60006AE070E02CD6AB0160E070E000E021E0C8
:100F70008CE893E056DB21E080910E01853009F08A
:100F800020E046E066E48CE893E0FAD580917804AE
:100F9000909179046AE070E012D6AC0160E070E0F4
:100FA00000E021E08CE893E03CDB21E080910E0141
:100FB000853009F020E046E06CE48CE893E0E0D571
:100FC00021E080910E01863009F020E047E064E0E6
:100FD0008BE992E0D5D54091020150E060E070E0ED
:100FE00000E022E08CE893E01CDB21E080910E0120
:100FF000863009F020E047E066E420C020E042E0CF
:1010000064E18AEA92E0BCD520E044E064E083EB4E
:1010100092E0B6D520E045E069E08DEB92E0B0D5F6
:10102000409100015091010160E070E000E026E095
:101030008CE893E0F6DA20E045E069E08CE893E0A4
:1010400035C020E043E064E18BEC92E099D520E0EC
:1010500044E06EE184ED92E029C020E043E06AE0E4
:101060008EED92E08DD520E044E06EE18DEE92E0D1
:101070001DC020E041E063E08CEF92E081D520E0EC
:1010800042E06DE287E093E07BD520E044E061E25E
:1010900080E193E075D520E047E065E186E193E0EB
:1010A0006FD520E046E06FE083E293E00F91FF9080
:1010B000EF90DF90CF9064C580917A0381110FC0CB
:1010C0004A9906C081E080937A0360E582E006C019
:1010D000499905C082E080937A0360E5E4CA0895E7
:1010E000CF9380910601882311F08F5F01C08DE3BB
:1010F0008093110180910701882339F0982F9F5F19
:1011000090931001823029F003C08DE38093100189
:10111000419AC0917B03C23009F4F6C030F4CC236D
:1011200041F0C13009F086C11EC0C73008F082C14D
:1011300078C180917A03813021F0823009F07AC140
:101140000BC080918403833018F01092840372C125
:101150008F5F809384036EC1C1E0C0937B0321D471
:10116000C0937E0367C190917A03913021F0923051
:1011700009F05DC1A6C080910E01843009F474C0ED
:1011800048F4823009F443C008F05BC0813009F0B4
:101190004EC109C0863009F477C008F46FC08730AB
:1011A00009F045C18AC0809100019091010180350C
:1011B0009105E1F028F4009779F0889719F50FC0B0
:1011C000843F21E09207C1F0883E23E09207B9F006
:1011D00088379105B9F40DC088E290E002C080E53F
:1011E00090E0909301018093000121C188E790E095
:1011F000F8CF84EF91E0F5CF88EE93E0F2CF88EB63
:101200009BE0EFCF109201011092000110C180917C
:101210000701823059F018F4882331F00FC08A306A
:1012200039F08E3159F408C082E003C08AE001C071
:101230008EE180930701FBC08CE3FBCF1092070186
:10124000F6C0809106018E3131F08C3331F081117E
:1012500008C08EE103C08CE301C088E780930601DB
:10126000E6C010920601E3C080910501882319F0C1
:1012700010920501DCC090930501D9C082E08093F3
:101280007B0390930E013EC01092690310926A0393
:1012900010926B0310926C03109265031092660318
:1012A000109267031092680310925E0310925D0320
:1012B00090930E0110927B0325C081E080938303FD
:1012C000B6C080910E01873008F48BC0F89460910D
:1012D000070188E090E0DFD46091050186E090E0AE
:1012E000DAD46091060187E090E0D5D460910001E6
:1012F0007091010180E090E0E0D4789410927B033B
:10130000C0930E014ED393C090917A03913021F097
:10131000923009F08CC061C080910E01833021F1C0
:1013200030F4813059F0823009F081C012C085302C
:10133000C1F138F1863009F07AC042C080910F01C6
:10134000883120F48F5F80930F0128C010920F0125
:1013500025C080917F038C3320F48F5F80937F03BF
:101360001DC010927F031AC080915C03882319F07E
:1013700010925C0302C090935C0380915C0318D4CC
:1013800056C080910301813910F0815001C08FE96E
:10139000809303016091030180E0EBD210928003FF
:1013A00046C080910401982F9456983110F48F5FB5
:1013B00001C084E68093040181E080938B0337C0F1
:1013C00080910201982F92509A3020F48F5F809381
:1013D00002012DC0C09302012AC080910E01863007
:1013E00020F48F5F80930E0122C0F8946091040175
:1013F00085E090E050D460915C0384E090E04BD4B1
:101400006091030183E090E046D46091020182E0A4
:1014100090E041D4789410927B0381E080930E0198
:1014200071CF10927B03BDD285E08093870381E06A
:1014300080937E038FEF93EC29E081509040204011
:10144000E1F700C0000010927A03CF910895CF9386
:10145000DF9380917A008E6880937A0080917C007F
:101460008E6680937C0023B783E083BF8BE791E097
:101470000197F1F700C0000080917A0080648093AA
:101480007A00889510927C0410927B0480E49091FD
:101490007A00906490937A0088958150C1F780918A
:1014A0007A008F7780937A00C0917B04D0917C047E
:1014B00076E0D695C7957A95E1F7D0937904C093F5
:1014C000780423BFCA3491E0D90728F0C13981E0FC
:1014D000D80780F411C080918703811104C061D2C4
:1014E00084E080937B03CC3291E0D90728F4CCE2EE
:1014F000D1E002C0C0E9D1E0CC52C0939303DF91A8
:10150000CF91089510926400399A88B188B9389AB9
:1015100088B188B987B18C6087B988B188B98AB138
:101520008AB9599A84B5826084BD84B58E7F84BDA2
:1015300085B5856085BD85B58C7F85BD81E087BD1E
:1015400016BC08951F93CF93DF9360E0C0910D0107
:1015500010910C01E8E9F3E020E030E0A901D1E0CE
:1015600081919191280F391F411D511DDC31E1F00E
:1015700020F4DA3009F043C005C0D73349F1DE3634
:10158000F1F536C0263087E4380741055105B8F13A
:10159000611135C0ABE0B0E05BD39B01AC01C4315D
:1015A00009F014E1C4E12AC021328EE43807410574
:1015B000510528F1611123C0B2E0220F331F441FEF
:1015C000551FBA95D1F7C73309F017E3C7E316C023
:1015D0002B3F31054105510590F0611110C0220FDC
:1015E000331F441F551FCE3609F01EE6CEE606C057
:1015F000611105C0CC3D09F01CEDCCED61E0DF5F71
:10160000DF3609F0ADCF2093750330937603409316
:1016100077035093780360937903C0930D0110937F
:101620000C01209371033093720340937303509322
:1016300074036091000170910101CB01A0E0B0E062
:1016400082179307A407B507C8F580918703811116
:1016500035C0672B99F18091110181111EC083B7AC
:101660008E7F83BF8DE380931101809107018F5F8F
:101670008093100147DFE8982898409A80910701ED
:10168000823009F0419A81E080930E01809103013C
:10169000A0D187D180915C038BD282E080938603B6
:1016A00060EF83E000D880917B03833009F079D12B
:1016B00083E080937B0381E080937E03DF91CF9171
:1016C0001F9108956EEA80E054D180916E008D7F65
:1016D00080936E008091B60084FDFCCF0DB407FEB0
:1016E000FDCF1CBC10927A0014BC15BC18B818B8F9
:1016F00018B814B815B818B817B818B817B817B874
:1017000018B814B81BB81092600310925F03209AA7
:1017100085B185B98AB18AB95B9A8AB18AB95A9A70
:1017200087E083BF80916400856280936400E89ABB
:10173000109211010895209A85B185B987B18C6006
:1017400087B942988AB18AB95B9A8AB18AB95A9A9A
:10175000D9DE1092B1008091B60080628093B6000D
:1017600080EE8093B20080E28093B3001092B400C8
:101770001092B00087E08093B100C1E0C093700088
:10178000109280008091810086608093810080911A
:1017900081008E7F80938100809164008F7D809393
:1017A000640084B5826084BD84B58E7F84BD85B5B8
:1017B000856085BD85B58C7F85BDC7BD16BC409A4B
:1017C00082E090E05BD28093020184E090E056D208
:1017D00080935C0388E090E051D2D82F809307017A
:1017E00086E090E04BD28093050185E090E046D200
:1017F0008093040187E090E041D28093060183E06A
:1018000090E03CD28093030180E090E03FD290933F
:10181000010180930001C0938B03909169009E7F2A
:1018200090936900E99AD23009F0419A80910301BE
:10183000D0D0B7D080915C03BBD18AE080937B038A
:101840000BD810927B032FEF87EA91E6215080405E
:101850009040E1F700C00000A4D07894D5E0C1E04A
:10186000809183038823C9F010928303E998109232
:101870006E0010926F001092700015B818B81BB867
:1018800014B817B81AB8D3BF8091640085628093EA
:101890006400E89AC0938203889580918903882325
:1018A00019F0109289030EDF809188038823B1F02C
:1018B0001092880327DEE8982898409A80910701C3
:1018C000823009F0419AC0930E018091030181D0CA
:1018D00068D080915C036CD1C0937E0380918203B9
:1018E00081113CC080918103882319F010928103FB
:1018F00029DE80911101882361F080917E03882385
:1019000041F010927E03A8D780917B03811101C022
:1019100034D780918B03882339F08091110188237B
:1019200019F010928B0393DD80911101882329F027
:10193000C3DB80917A038111D3DB80917C03882300
:1019400069F080911101882349F080910501882375
:1019500029F010927C0362E384E0A5D68091110106
:10196000882329F080918203882309F479CF889510
:1019700077CF2A982D98882311F02B9A01C02B98A5
:101980002D9A8CE58CBD8DB581608DBD6EBD0DB47D
:1019900007FEFDCF1CBC82E08A95F1F700C02A9AB1
:1019A0000895CF93DF9360E480E0E3DF60EB80E0B5
:1019B000E0DF60E180E0DDDF60E080E0DADFC0E60C
:1019C000D3E060E081E0D5DF2197D9F7DF91CF91B7
:1019D0000895CF93C82F94B19C6394B92A982C98FA
:1019E0008FE097E20197F1F700C000002C9A62EEB9
:1019F00080E0BFDF8FE19EE40197F1F700C00000B7
:101A00006FEA80E0B6DF64EA80E0B3DF6FE280E097
:101A1000B0DF60EB80E0ADDF61EA80E0AADF6C2F31
:101A200080E0A7DF60E180E0A4DF60E080E0A1DF8C
:101A3000CF91B7CFCF93C82F6A3008F060E0C1369E
:101A400008F0C0E0606B80E094DF6C2F62956F70EF
:101A5000606180E08EDF6C2F6F7080E0CF9189CF66
:101A6000CF92DF92EF92FF920F931F93CF93DF936A
:101A70001F92CDB7DEB7182FF62E813208F01F5017
:101A8000642F8F2D4983D6DFC12CD12C212F30E03C
:101A90002052310988E1829F8001839F100D11241B
:101AA0004981E42EE39409C08BE0C81203C06E2D77
:101AB0008F2DC0DFEFEFCE1ADE0AF601E00FF11F27
:101AC000EC5CFF4F649181E054DFF7E1CF16D10465
:101AD00059F70F90DF91CF911F910F91FF90EF90E9
:101AE000DF90CF9008950F931F93CF93DF93162F1E
:101AF000042FEC0104C0402F612FB2DF135F8991E6
:101B00008111F9CFDF91CF911F910F910895FF922D
:101B10000F931F93CF93DF93182F862FF22E17FD6D
:101B200010541F3308F01554642F84DFC0E0D0E058
:101B3000812F90E0809725E0289F8001299F100D3C
:101B40001124CE01800F911F875F9F4FFF2021F04E
:101B500095D0682F609502C091D0682F81E009DF91
:101B60002196C530D10569F7FF2011F06FEF01C054
:101B700060E081E0DF91CF911F910F91FF90F9CE4E
:101B8000FF920F931F93CF93DF93162F042FF22E04
:101B9000EC0105C02F2D402F612FB9DF1A5F89910D
:101BA0008111F8CFDF91CF911F910F91FF90089590
:101BB000882311F066EA01C067EA80E0DACEAA1B4A
:101BC000BB1B51E107C0AA1FBB1FA617B70710F028
:101BD000A61BB70B881F991F5A95A9F7809590955A
:101BE000BC01CD01089597FB072E16F4009406D092
:101BF00077FD08D0E4DF07FC05D03EF49095819591
:101C00009F4F0895709561957F4F0895A1E21A2E18
:101C1000AA1BBB1BFD010DC0AA1FBB1FEE1FFF1F90
:101C2000A217B307E407F50720F0A21BB30BE40BE0
:101C3000F50B661F771F881F991F1A9469F7609527
:101C40007095809590959B01AC01BD01CF010895E1
:101C500009D0A59F900DB49F900DA49F800D911D5C
:101C600011240895A29FB001B39FC001A39F01D08A
:101C7000B29F700D811D1124911D0895F999FECF19
:101C800092BD81BDF89A992780B50895A8E1B0E08A
:101C900042E050E018C0262FF999FECF92BD81BDD9
:101CA000F89A019700B4021639F01FBA20BD0FB69A
:101CB000F894FA9AF99A0FBE08950196272FECDF4F
:101CC000EACFDC01CB01FC01F999FECF06C0F2BDE1
:101CD000E1BDF89A319600B40D9241505040B8F7EA
:061CE0000895F894FFCF07
:101CE600780008996E011E1E01000000DCDC010C64
:101CF6001E1ED7E0F1003A0023313030252400C8FB
:101D0600E7EC2E303030F12E28303030252900C750
:101D1600E020303030E42E30303030CCEAD000C70E
:101D2600E020303030E42E3030303020CCD000D1BE
:101D3600E5E3EEE4EDFF2000CCE0EAF12E20200002
:101D460030303020CCD02FD700202020202820CCA7
:101D5600C5CDDE20292020202000D2F0E5E22E305D
:101D6600303030CCEAD02FD700D2F0E5E2EEE3E017
:101D760020CEF2EAEB2E2000CFEEE4F1E22E20CECA
:101D8600F2EAEB2E202000CFEEE4F1E22E203030F6
:101D96003020F1E5EA00CFEEE4F1E22E2020C2CABF
:101DA600CB2E202000D1EEED2030303020F1E5EAB8
:101DB60020202000D1EEED20E7E0EFF0E5F9E5ED9B
:101DC600202000C8ECEFF3EBFCF120C7E2F3EA2099
:101DD6002000C8ECEFF3EBFCF120D2E8F5EE202072
:101DE60000CDC0D1D2D0CEC9CAC82026262626000C
:101DF600CEE1EDF3EBE8F2FC20E4EEE7F32100C2DE
:101E0600FBEAEBFEF7E8F2FC202020202000202849
:101E160020CDC0D1D2D0CEC9CAC82029202000D317
:101E2600F02EEDE0EAE0F7EAE83A28303030290013
:101E3600D7E0F1FB3A2030303A30303A303000C843
:101E4600EDE2E5F0F1EDEE20202020202000C1E5B6
:101E5600E720E8EDE2E5F0F1E8E8202000CAEEED43
:101E6600F2F0E0F1F23A203030302000C8CECD203A
:101E76003030303A20302E3030C200CDE0EAE0F784
:101E8600EAE02838293A30302000D2D0C5C2CEC385
:101E9600C02100D4EEED20E1EEEBE5E50030303078
:101EA60030303020CCEAD02FD72100C7E0F0FFE455
:101EB600E8F2E500E4EEE7E8ECE5F2F02100CEF822
:101EC600E8E1EAE020E4E0F2F7E8EAE000EDE5F236
:101ED60020E8ECEFF3EBFCF1EEE22100C3E0ECECE2
:101EE600E02FC1E5F2E000E4EEE7E8ECE5F2F00011
:101EF600CDC0CDC8D200EFF0EEF8E8E2EAE020313E
:101F06002E3000C4E0F2F7E8EA20D1C1CC2D313002
:101F16000000CA9A3B00E1F5058096980040420F02
:101F260000A086010010270000E8030000640000FE
:0A1F3600000A000000010000000096
:00000001FF
