:100000009DC032C179C1B5C0B4C0B3C0B2C0B1C027
:10001000B0C0A9C1AEC0ADC0ACC0ABC05FC3A9C0C9
:10002000A8C0A7C0A6C0A5C0A4C0EAC0A2C0A1C065
:10003000A0C09FC000000000000000000000000001
:1000400000000000000000000000000000F8FE06B4
:100050000383C363331EFEF800071F1E33313030A5
:1000600030181F070000000C0C0EFFFF00000000FE
:100070000000003030303F3F30303000001C1E07A1
:10008000030383C3E3773E1C0030383C3E373331F3
:1000900030303030000C0E07C3C3C3C3C3E77E3C0F
:1000A000000C1C383030303030391F0E00C0E0708A
:1000B000381C0E07FFFF00000003030303030303C4
:1000C0003F3F0303003F7F636363636363E3C38373
:1000D000000C1C383030303030381F0F00C0F0F8C2
:1000E000DCCEC7C3C3C38000000F1F3930303030AF
:1000F00030391F0F00030303030303C3F33F0F0350
:1001000000000000303C0F03000000000000BCFEB7
:10011000E7C3C3C3E7FEBC00000F1F3930303030E7
:1001200030391F0F003C7EE7C3C3C3C3C3E7FEFCE7
:10013000000000303030381C0E07030011241FBEB1
:10014000CFEFD4E0DEBFCDBF13E0A0E0B1E0E0E749
:10015000FDE102C005900D92AC35B107D9F724E05E
:10016000ACE5B3E001C01D92AF38B207E1F728DB80
:10017000FDCD46CF809102018D3018F08CE0809348
:10018000020180910201823018F482E08093020122
:10019000109297031092960320E030E0809196032E
:1001A0009091970301969093970380939603289AD2
:1001B0009091020180E002C000008F5F8913FCCFA4
:1001C000289810928500109284004AE54A95F1F72C
:1001D00000C0809184009091850080938C04809170
:1001E0008C04882321F0289884EF91E001C0C90194
:1001F0009C012F5F3F4F843F914080F228980895E3
:100200001F920F920FB60F9211242F933F934F938B
:100210005F936F937F938F939F93AF93BF9320913F
:100220008D0430918E0480910401609179004FEF2C
:10023000849FC001112470E06150710919DD620FC3
:10024000731F70938E0460938D04BF91AF919F9143
:100250008F917F916F915F914F913F912F910F906F
:100260000FBE0F901F9018951F920F920FB60F920E
:1002700011242F933F934F935F936F937F938F93AB
:100280009F93AF93BF93EF93FF9383B78E7F83BF0B
:1002900080918403882339F010928403E0915C03F9
:1002A000F0915D03099580910601882311F08F5F1D
:1002B00001C08DE38093130180910701882311F021
:1002C0008F5F01C08DE38093120181E080938A03E8
:1002D00085E080937C03FF91EF91BF91AF919F9157
:1002E0008F917F916F915F914F913F912F910F90DF
:1002F0000FBE0F901F9018951F920F920FB60F927E
:1003000011242F933F934F935F936F937F938F931A
:100310009F93AF93BF93EF93FF9328988091980397
:1003200090919903019690939903809398038997EC
:1003300010F020DF04C08AE18A95F1F700C081E067
:1003400080937E03FF91EF91BF91AF919F918F9129
:100350007F916F915F914F913F912F910F900FBEC1
:100360000F901F9018951F920F920FB60F921124A5
:100370002F933F934F935F936F937F938F939F93AD
:10038000AF93BF93EF93FF93289880EE8093B200D2
:10039000809182038F5F809382038091130181306B
:1003A00011F480938B0380911201813009F44198FC
:1003B00080911301882339F090910601992319F057
:1003C00081508093130180911201882339F090911C
:1003D0000701992319F081508093120180910C013B
:1003E00090910D01009729F0019790930D01809352
:1003F0000C0180918C03811124C0E4E8F4E081E0D9
:1004000090E0A0E0B0E026E752914291538342830E
:1004100060E070E084179507A607B70720F4203640
:1004200010F4DB01CA01215079F780930801909301
:100430000901A0930A01B0930B0110929903109245
:10044000980380918C03833030F480918C038F5F0C
:1004500080938C0302C010928C038091730390915F
:100460007403A0917503B09176034091630350919A
:1004700064036091650370916603481759076A0722
:100480007B0740F48093630390936403A093650318
:10049000B0936603409167035091680360916903CC
:1004A00070916A03411551056105710589F0480F86
:1004B000591F6A1F7B1F76956795579547954093FF
:1004C0006703509368036093690370936A0308C0DD
:1004D0008093670390936803A0936903B0936A03C2
:1004E000209182032C3309F088C01092820320915E
:1004F00081032F5F2093810320918903222319F028
:10050000215020938903892B8A2B8B2B29F48091EE
:1005100087038F5F80938703809187038B3040F040
:1005200080918903811104C081DA85E080937D0385
:1005300081E080938D03809181038C3309F05DC04D
:1005400010928103209111012F5F2093110180915E
:10055000670390916803A0916903B0916A03409189
:100560006F03509170036091710370917203840F57
:10057000951FA61FB71F80936F0390937003A093DE
:100580007103B09372031092670310926803109284
:10059000690310926A03283181F5109211012091AC
:1005A0005F03309160032F5F3F4F309360032093D0
:1005B0005F0340916B0350916C0360916D037091E8
:1005C0006E03480F591F6A1F7B1F40936B035093A4
:1005D0006C0360936D0370936E0310926F0310921F
:1005E00070031092710310927203109263031092C1
:1005F000640310926503109266038091820380FF6A
:10060000B9DD81E08093800380938303FF91EF91B4
:10061000BF91AF919F918F917F916F915F914F911A
:100620003F912F910F900FBE0F901F901895CF9272
:10063000DF92EF92FF920F93CF93DF93FC013AE0AA
:10064000321BDF0124E0329FE0011124CD5CDC4F3E
:10065000C880D980EA80FB803F5F20E005C02F5F23
:100660004C195D096E097F094C155D056E057F0506
:10067000B0F7205D2D933A3028F31C9201110BC086
:1006800005C0818181119083319601C090E2808103
:100690008033B9F305C0FC01019620812033D9F3E2
:1006A000CF01DF91CF910F91FF90EF90DF90CF902E
:1006B00008952091610330916203232B71F49AE035
:1006C000699FB0011124709389046093880487BDE9
:1006D00080916E00826080936E0008951F920F9249
:1006E0000FB60F9211242F933F934F935F936F9305
:1006F0007F938F939F93AF93BF93EF93FF938091DB
:100700007F03882329F04498439A10927F0305C001
:100710004398449A81E080937F0380916103909194
:1007200062032091880430918904AC014F5F5F4FD0
:1007300050936203409361032817390798F480911E
:100740006E008D7F80936E004498439810926203F0
:100750001092610380918803823021F41092880303
:100760006EEFA7DFFF91EF91BF91AF919F918F91B6
:100770007F916F915F914F913F912F910F900FBE9D
:100780000F901F9018956F927F929F92AF92BF9299
:10079000CF92DF92EF92FF920F931F93CF93DF934D
:1007A0001F92CDB7DEB73AE9632E33E0732EB12C3A
:1007B0004EE0A42E5EE0E52EF12C0FEF10E066E097
:1007C000C62ED12CF301819191913F01A89EB001D9
:1007D000A99E700D112480E090E0209108013091D5
:1007E000090140910A0150910B0155DA273060F45C
:1007F0002223A1F0C601821B9109902F01C0990FFD
:100800008A95EAF7912C0CC0C701821B9109902EA2
:1008100001C0990C8A95EAF79FEF02C0912C90ECE9
:1008200065E08B2D99834BD99981692F6F7781E092
:10083000E5D864E08B2D43D9692D81E0DFD8B394EE
:10084000F1E6BF12BFCF0F90DF91CF911F910F91B3
:10085000FF90EF90DF90CF90BF90AF909F907F90F0
:100860006F900895CF92DF92EF92FF920F93809155
:100870007D03833009F4D5C330F4813009F4D8C145
:10088000823049F4A4C2853009F4FAC308F4ECC3F9
:100890008A3009F401C420E042E06AE484E191E096
:1008A000B4D920910C0130910D0144E6429FC00162
:1008B000439F900D112460910E0170910F01C4D9D6
:1008C000672B49F08091820380FD05C041E065E01F
:1008D0008AE692E034C040917303509174036091B2
:1008E0007503709176034F3926E8520721E06207BD
:1008F000710558F400E025E08EE893E098DE20E0F2
:1009000041E06AE48DE391E015C0CB01BA0128EE25
:1009100033E040E050E0BFD969017A0100E025E012
:10092000B701A6018EE893E082DE20E041E06AE4B0
:100930008DE491E06AD941E065E08EE893E018D952
:100940004091110150E060E070E000E022E08EE8AC
:1009500093E06DDE20E047E065E08EE893E055D956
:1009600020E047E062E188E191E04FD940918103C6
:1009700050E060E070E001E022E08EE893E057DEB6
:1009800020E047E067E18EE893E03FD920E047E0D0
:100990006BE38AE191E039D94091950350E060E042
:1009A00070E023E08EE893E042DE20E047E061E47F
:1009B0008EE893E02AD920E043E064E081E291E010
:1009C00024D940910E0150910F0160E070E000E0E9
:1009D00023E08EE893E02BDE20E043E06CE18EE83C
:1009E00093E013D920910C0130910D0144E6429F10
:1009F000C001439F900D112460910E0170910F0171
:100A000023D944E650E0461B570B60E070E023E03A
:100A10008EE893E00CDE20E043E060E48EE893E0B3
:100A2000F4D880918603813009F483C0823009F4C0
:100A3000BBC080916F0390917003A0917103B0913E
:100A4000720340916B0350916C0360916D03709140
:100A50006E03840F951FA61FB71F8F309742A10505
:100A6000B10558F520E046E064E081E391E0CDD89F
:100A700040915F035091600360E070E023E08EE8F6
:100A800093E0D5DD20E046E065E18EE893E0BDD857
:100A900040916F03509170036091710370917203E4
:100AA00080916B0390916C03A0916D03B0916E03E4
:100AB000480F591F6A1F7B1F5EC020E046E064E0BC
:100AC00081E491E0A2D840915F035091600360E01F
:100AD00070E000E023E08EE893E0A9DD20E046E04E
:100AE00065E18EE893E091D860916F037091700397
:100AF0008091710390917203C0906B03D0906C034E
:100B0000E0906D03F0906E036C0D7D1D8E1D9F1D9A
:100B100028EE33E040E050E0BED869017A0124E0DD
:100B2000B701A6018EE893E082DD20E046E064E3B1
:100B300098C220E046E064E081E591E066D88091CB
:100B40006F0390917003A0917103B09172038F3085
:100B50009742A105B10588F420E046E064E389E30B
:100B600091E053D840916F035091700360917103ED
:100B70007091720300E024E0D5CF20E046E064E30A
:100B800089E491E042D860916F0370917003809185
:100B900071039091720328EE33E040E050E07BD87F
:100BA00069017A0100E0BBCF20E046E064E08AE51D
:100BB00091E02BD88091630390916403A091650329
:100BC000B0916603873E9340A105B10588F420E00B
:100BD00046E06EE282E891E018D8409163035091BC
:100BE0006403609165037091660300E023E019C01F
:100BF00020E046E06EE282E691E007D86091630370
:100C000070916403809165039091660328EE33E050
:100C100040E050E040D869017A0100E023E0B701EC
:100C2000A6018EE893E003DD20E046E06EE219C203
:100C300021E040E060E08BE691E0E7D780910001A1
:100C4000909101013091100121E0892BF1F03130B8
:100C500009F020E041E064E08CE791E0D6D74091D4
:100C600000015091010160E070E000E024E08EE8B6
:100C700093E0DDDC21E080911001813009F020E07B
:100C800041E062E28EE893E007C0313009F020E0F5
:100C900041E064E08BE891E0B8D790910701809142
:100CA000100121E0923041F4823009F020E042E06E
:100CB00064E08AE991E026C09923E9F0823009F0E6
:100CC00020E042E064E089EA91E09FD7409107018B
:100CD00050E060E070E000E023E08EE893E0A7DC05
:100CE00021E080911001823009F020E042E06EE2C4
:100CF0008EE893E007C0823009F020E042E064E033
:100D000088EB91E082D7909106018091100121E05B
:100D10009923E9F0833009F020E043E064E087ECB8
:100D200091E073D74091060150E060E070E000E090
:100D300023E08EE893E07BDC21E08091100183309A
:100D400009F020E043E06CE18EE893E007C08330D7
:100D500009F020E043E064E086ED91E056D7909101
:100D600005018091100121E0992341F0843009F0C0
:100D700020E044E064E085EE91E007C0843009F0B3
:100D800020E044E064E084EF91E03FD721E08091EF
:100D90001001853009F020E045E064E083E092E056
:100DA00034D721E080911001863009F020E046E040
:100DB00064E082E192E029D721E080911001873040
:100DC00009F020E047E064E081E292E082C121E0A6
:100DD00040E060E080E392E018D721E041E060E08D
:100DE00081E492E012D7409196035091970360E01E
:100DF00070E000E023E08EE893E019DC21E041E0C0
:100E000068E48EE893E001D720E043E064E082E507
:100E100092E0FBD64091110150E060E070E022E0EA
:100E20008EE893E004DC21E080911001813009F02C
:100E300020E043E068E28EE893E0E7D6409181034A
:100E400050E060E070E001E022E08EE893E0EFDB4C
:100E500021E080911001823009F020E043E06AE354
:100E60008EE893E0D2D64091820350E060E070E0DB
:100E700001E022E08EE893E0DADB20E043E06CE47E
:100E80008EE893E0C2D690915E038091100121E03C
:100E9000992341F0833009F020E044E064E081E6EA
:100EA00092E007C0833009F020E044E064E080E78E
:100EB00092E0ABD621E080911001843009F020E06F
:100EC00045E064E08FE792E0A0D68091030140EA1C
:100ED00050E0481B5109662757FD6095762F00E0CA
:100EE00023E08EE893E0A3DB21E0809110018430C1
:100EF00009F020E045E060E48EE893E086D621E04A
:100F000080911001853009F020E046E064E08EE831
:100F100092E07BD64091040150E060E070E000E098
:100F200023E08EE893E083DB21E08091100185309F
:100F300009F020E046E06CE18EE893E066D680910F
:100F40008A0490918B0468EE73E07ED664E670E0CC
:100F50007BD6AB0160E070E000E021E08EE893E03A
:100F600066DB21E080911001853009F020E046E049
:100F70006AE38EE893E049D680918A0490918B04CD
:100F800064E670E061D66AE070E05ED6AB0160E0D6
:100F900070E000E021E08EE893E049DB21E0809101
:100FA0001001853009F020E046E066E48EE893E029
:100FB0002CD680918A0490918B046AE070E044D62C
:100FC000AC0160E070E000E021E08EE893E02FDB10
:100FD00021E080911001853009F020E046E06CE4CA
:100FE0008EE893E012D621E080911001863009F05E
:100FF00020E047E064E08DE992E007D640910201ED
:1010000050E060E070E000E022E08EE893E00FDB6B
:1010100021E080911001863009F020E047E066E48D
:1010200020C020E042E064E18CEA92E0EED520E0CE
:1010300044E064E085EB92E0E8D520E045E069E03B
:101040008FEB92E0E2D5409100015091010160E008
:1010500070E000E026E08EE893E0E9DA20E045E089
:1010600069E08EE893E035C020E043E064E18DEC78
:1010700092E0CBD520E044E06EE186ED92E029C01D
:1010800020E043E06AE080EE92E0BFD520E044E05B
:101090006EE18FEE92E01DC020E041E063E08EEF54
:1010A00092E0B3D520E042E06DE289E093E0ADD577
:1010B00020E044E061E282E193E0A7D520E047E050
:1010C00065E188E193E0A1D520E046E06FE085E2AC
:1010D00093E00F91FF90EF90DF90CF9096C58091B5
:1010E0007C0381110FC04A9906C081E080937C0384
:1010F00060E582E006C0499905C082E080937C03E8
:1011000060E5D7CA0895CF9380910601882311F036
:101110008F5F01C08DE380931301809107018823C5
:1011200039F0982F9F5F90931201823029F003C00D
:101130008DE380931201419AC0917D03C23009F47E
:10114000F6C030F4CC2341F0C13009F086C11EC096
:10115000C73008F082C178C180917C03813021F0D2
:10116000823009F07AC10BC080918603833018F079
:101170001092860372C18F5F809386036EC1C1E0B7
:10118000C0937D0353D4C093800367C190917C03C7
:10119000913021F0923009F05DC1A6C0809110011C
:1011A000843009F474C048F4823009F443C008F074
:1011B0005BC0813009F04EC109C0863009F477C0A8
:1011C00008F46FC0873009F045C18AC080910001E2
:1011D0009091010180359105E1F028F4009779F0B4
:1011E000889719F50FC0843F21E09207C1F0883E2F
:1011F00023E09207B9F088379105B9F40DC088E271
:1012000090E002C080E590E090930101809300019E
:1012100021C188E790E0F8CF84EF91E0F5CF88EE28
:1012200093E0F2CF88EB9BE0EFCF10920101109298
:10123000000110C180910701823059F018F4882311
:1012400031F00FC08A3039F08E3159F408C082E095
:1012500003C08AE001C08EE180930701FBC08CE3EC
:10126000FBCF10920701F6C0809106018E3131F05C
:101270008C3331F0811108C08EE103C08CE301C0D2
:1012800088E780930601E6C010920601E3C08091D2
:101290000501882319F010920501DCC09093050127
:1012A000D9C082E080937D03909310013EC01092DC
:1012B0006B0310926C0310926D0310926E031092E8
:1012C0006703109268031092690310926A031092E8
:1012D000600310925F039093100110927D0325C06C
:1012E00081E080938503B6C080911001873008F4B7
:1012F0008BC0F8946091070188E090E011D560916F
:10130000050186E090E00CD56091060187E090E051
:1013100007D5609100017091010180E090E012D545
:10132000789410927D03C093100180D393C0909164
:101330007C03913021F0923009F08CC061C0809123
:101340001001833021F130F4813059F0823009F0FE
:1013500081C012C08530C1F138F1863009F07AC001
:1013600042C080911101883120F48F5F8093110178
:1013700028C01092110125C0809181038C3320F484
:101380008F5F809381031DC0109281031AC08091EA
:101390005E03882319F010925E0302C090935E03EF
:1013A00080915E034AD456C080910301813910F0C8
:1013B000815001C08FE9809303016091030180E0B7
:1013C0001DD31092820346C080910401982F945639
:1013D000983110F48F5F01C084E68093040181E0AE
:1013E00080938D0337C080910201982F92509A30DC
:1013F00020F48F5F809302012DC0C09302012AC0A8
:1014000080911001863020F48F5F8093100122C0FC
:10141000F8946091040185E090E082D460915E03CD
:1014200084E090E07DD46091030183E090E078D483
:101430006091020182E090E073D4789410927D0371
:1014400081E08093100171CF10927D03EFD285E08F
:101450008093890381E0809380038FEF93EC29E0F0
:10146000815090402040E1F700C0000010927C03C2
:10147000CF910895CF93DF9380917A008E68809307
:101480007A0080917C008E6680937C0023B783E095
:1014900083BF8BE791E00197F1F700C000008091D6
:1014A0007A00806480937A00889510928E0410925E
:1014B0008D0480E490917A00906490937A008895EE
:1014C0008150C1F780917A008F7780937A00C09124
:1014D0008D04D0918E0476E0D695C7957A95E1F784
:1014E000D0938B04C0938A0423BFCA3491E0D907F8
:1014F00028F0C13981E0D80780F411C080918903B8
:10150000811104C093D284E080937D03CC3291E0BA
:10151000D90728F4CCE2D1E002C0C0E9D1E0CC5236
:10152000C0939503DF91CF91089510926400399A8A
:1015300088B188B9389A88B188B987B18C6087B981
:1015400088B188B98AB18AB9599A84B5826084BD54
:1015500084B58E7F84BD85B5856085BD85B58C7F5E
:1015600085BD81E087BD16BC0895AF92BF92CF9232
:10157000DF92EF92FF921F93CF93DF9320E0E091F1
:101580000E01F0910F01C0910C01D0910D01BAE94B
:10159000AB2EB3E0BB2EC12CD12C760111E0D501CE
:1015A0008D919D915D01C80ED91EE11CF11C143175
:1015B00049F120F4143009F05DC006C01732C9F1BA
:1015C000163709F057C04CC0BDE7CB16BAE1DB06B1
:1015D000E104F10408F44EC021114CC0ADE1B0E0CB
:1015E000A70196017AD3F694E794D794C794C60ED0
:1015F000D71EE81EF91E3C9711F0CCE0D0E0ECE0DD
:10160000F0E037C086E1C81684E3D806E104F104AF
:1016100088F121112FC0A6E0B0E0A70196015DD3AB
:101620006B017C01FC9711F0CCE3D0E0ECE3F0E03F
:1016300020C0A8EACA16D104E104F104D8F02111AF
:1016400019C0A3E0B0E0A701960147D36B017C016C
:10165000E637F10511F0C6E7D0E0E6E7F0E009C0B3
:10166000211108C0E236F14011F0C2E6D1E0E2E615
:10167000F1E021E01F5F173709F091CFC0927703A7
:10168000D0927803E0927903F0927A0320937B035F
:10169000F0930F01E0930E01D0930D01C0930C0164
:1016A000C0927303D0927403E0927503F0927603B4
:1016B0002091000130910101C901A0E0B0E08C153A
:1016C0009D05AE05BF05C8F580918903811135C020
:1016D000232B99F18091130181111EC083B78E7F56
:1016E00083BF8DE380931301809107018F5F809307
:1016F00012011BDFE8982898409A809107018230F8
:1017000009F0419A81E08093100180910301A6D1F4
:101710008DD180915E0391D282E08093880360EF47
:1017200083E0C7D780917D03833009F07FD183E0C8
:1017300080937D0381E080938003DF91CF911F919F
:10174000FF90EF90DF90CF90BF90AF9008956EEA3A
:1017500080E054D180916E008D7F80936E008091E7
:10176000B60084FDFCCF0DB407FEFDCF1CBC10926B
:101770007A0014BC15BC18B818B818B814B815B845
:1017800018B817B818B817B817B818B814B81BB8DD
:101790001092620310926103209A85B185B98AB1D3
:1017A0008AB95B9A8AB18AB95A9A87E083BF8091D5
:1017B0006400856280936400E89A10921301089592
:1017C000209A85B185B987B18C6087B942988AB172
:1017D0008AB95B9A8AB18AB95A9AA7DE1092B10087
:1017E0008091B60080628093B60080EE8093B20054
:1017F00080E28093B3001092B4001092B00087E0B2
:101800008093B100C1E0C09370001092800080917D
:101810008100866080938100809181008E7F80931B
:101820008100809164008F7D8093640084B5826024
:1018300084BD84B58E7F84BD85B5856085BD85B545
:101840008C7F85BDC7BD16BC409A82E090E05BD21C
:101850008093020184E090E056D280935E0388E09A
:1018600090E051D2D82F8093070186E090E04BD2D0
:101870008093050185E090E046D28093040187E0E3
:1018800090E041D28093060183E090E03CD28093C7
:10189000030180E090E03FD290930101809300012A
:1018A000C0938D03909169009E7F90936900E99A9F
:1018B000D23009F0419A80910301D0D0B7D0809105
:1018C0005E03BBD18AE080937D03CCD710927D0369
:1018D0002FEF87EA91E6215080409040E1F700C069
:1018E0000000A4D07894D5E0C1E0809185038823DE
:1018F000C9F010928503E99810926E0010926F0063
:101900001092700015B818B81BB814B817B81AB8E8
:10191000D3BF80916400856280936400E89AC0938D
:101920008403889580918B03882319F010928B0390
:101930000EDF80918A038823B1F010928A03F5DDCF
:10194000E8982898409A80910701823009F0419ADE
:10195000C09310018091030181D068D080915E0313
:101960006CD1C09380038091840381113CC080912D
:101970008303882319F010928303F7DD809113010C
:10198000882361F080918003882341F010928003C6
:1019900069D780917D03811101C0F5D680918D03B7
:1019A000882339F080911301882319F010928D0358
:1019B00061DD80911301882329F091DB80917C0304
:1019C0008111A1DB80917E03882369F0809113014E
:1019D000882349F080910501882329F010927E0325
:1019E00062E384E066D680911301882329F0809118
:1019F0008403882309F479CF889577CF2A982D9886
:101A0000882311F02B9A01C02B982D9A8CE58CBD60
:101A10008DB581608DBD6EBD0DB407FEFDCF1CBCC4
:101A200082E08A95F1F700C02A9A0895CF93DF9358
:101A300060E480E0E3DF60EB80E0E0DF60E180E035
:101A4000DDDF60E080E0DADFC0E6D3E060E081E087
:101A5000D5DF2197D9F7DF91CF910895CF93C82F84
:101A600094B19C6394B92A982C988FE097E20197DF
:101A7000F1F700C000002C9A62EE80E0BFDF8FE13A
:101A80009EE40197F1F700C000006FEA80E0B6DF46
:101A900064EA80E0B3DF6FE280E0B0DF60EB80E01B
:101AA000ADDF61EA80E0AADF6C2F80E0A7DF60E1B4
:101AB00080E0A4DF60E080E0A1DFCF91B7CFCF93DB
:101AC000C82F6A3008F060E0C13608F0C0E0606BF3
:101AD00080E094DF6C2F62956F70606180E08EDF34
:101AE0006C2F6F7080E0CF9189CFCF92DF92EF9211
:101AF000FF920F931F93CF93DF931F92CDB7DEB763
:101B0000182FF62E813208F01F50642F8F2D498335
:101B1000D6DFC12CD12C212F30E02052310988E1B1
:101B2000829F8001839F100D11244981E42EE3944C
:101B300009C08BE0C81203C06E2D8F2DC0DFEFEF00
:101B4000CE1ADE0AF601E00FF11FEC5CFF4F649144
:101B500081E054DFF7E1CF16D10459F70F90DF9100
:101B6000CF911F910F91FF90EF90DF90CF9008954C
:101B70000F931F93CF93DF93162F042FEC0104C014
:101B8000402F612FB2DF135F89918111F9CFDF916F
:101B9000CF911F910F910895FF920F931F93CF93B1
:101BA000DF93182F862FF22E17FD10541F3308F0E5
:101BB0001554642F84DFC0E0D0E0812F90E080973F
:101BC00025E0289F8001299F100D1124CE01800F50
:101BD000911F875F9F4FFF2021F095D0682F609560
:101BE00002C091D0682F81E009DF2196C530D10570
:101BF00069F7FF2011F06FEF01C060E081E0DF9135
:101C0000CF911F910F91FF90F9CEFF920F931F93E9
:101C1000CF93DF93162F042FF22EEC0105C02F2D4A
:101C2000402F612FB9DF1A5F89918111F8CFDF91C1
:101C3000CF911F910F91FF900895882311F066EACC
:101C400001C067EA80E0DACEAA1BBB1B51E107C0E6
:101C5000AA1FBB1FA617B70710F0A61BB70B881F3C
:101C6000991F5A95A9F780959095BC01CD010895CB
:101C700097FB072E16F4009406D077FD08D0E4DF1A
:101C800007FC05D03EF4909581959F4F089570957F
:101C900061957F4F0895A1E21A2EAA1BBB1BFD017F
:101CA0000DC0AA1FBB1FEE1FFF1FA217B307E4073B
:101CB000F50720F0A21BB30BE40BF50B661F771F93
:101CC000881F991F1A9469F7609570958095909573
:101CD0009B01AC01BD01CF01089509D0A59F900DD6
:101CE000B49F900DA49F800D911D11240895A29F73
:101CF000B001B39FC001A39F01D0B29F700D811DA1
:101D00001124911D0895F999FECF92BD81BDF89AD5
:101D1000992780B50895A8E1B0E042E050E018C0EE
:101D2000262FF999FECF92BD81BDF89A019700B494
:101D3000021639F01FBA20BD0FB6F894FA9AF99A34
:101D40000FBE08950196272FECDFEACFDC01CB010F
:101D5000FC01F999FECF06C0F2BDE1BDF89A3196BB
:101D600000B40D9241505040B8F70895F894FFCF59
:101D7000780008996E011E1E0100000062016201D8
:101D8000010C1E1ED7E0F1003A002331303025242B
:101D900000C8E7EC2E303030F12E283030302529C5
:101DA00000C7E020303030E42E30303030CCEAD084
:101DB00000C7E020303030E42E3030303020CCD03E
:101DC00000D1E5E3EEE4EDFF2000CCE0EAF12E20C7
:101DD000200030303020CCD02FD7002020202028E9
:101DE00020CCC5CDDE20292020202000D2F0E5E245
:101DF0002E30303030CCEAD02FD700D2F0E5E2EEF2
:101E0000E3E020CEF2EAEB2E2000CFEEE4F1E22E6A
:101E100020CEF2EAEB2E202000CFEEE4F1E22E20DD
:101E200030303020F1E5EA00CFEEE4F1E22E202060
:101E3000C2CACB2E202000D1EEED2030303020F170
:101E4000E5EA20202000D1EEED20E7E0EFF0E5F913
:101E5000E5ED202000C8ECEFF3EBFCF120C7E2F346
:101E6000EA202000C8ECEFF3EBFCF120D2E8F5EE1D
:101E7000202000CDC0D1D2D0CEC9CAC82026262667
:101E80002600CEE1EDF3EBE8F2FC20E4EEE7F321EF
:101E900000C2FBEAEBFEF7E8F2FC20202020200045
:101EA000202820CDC0D1D2D0CEC9CAC82029202018
:101EB00000D3F02EEDE0EAE0F7EAE83A28303030DF
:101EC0002900D7E0F1FB3A2030303A30303A303058
:101ED00000C8EDE2E5F0F1EDEE202020202020000A
:101EE000C1E5E720E8EDE2E5F0F1E8E8202000CAEE
:101EF000EEEDF2F0E0F1F23A203030302000C8CEC2
:101F0000CD203030303A20302E3030C200CDE0EAE3
:101F1000E0F7EAE02838293A30302000D2D0C5C2B4
:101F2000CEC3C02100D4EEED20E1EEEBE5E50030BC
:101F3000303030303020CCEAD02FD72100C7E0F04D
:101F4000FFE4E8F2E500E4EEE7E8ECE5F2F021007A
:101F5000CEF8E8E1EAE020E4E0F2F7E8EAE000EDBC
:101F6000E5F220E8ECEFF3EBFCF1EEE22100C3E058
:101F7000ECECE02FC1E5F2E000E4EEE7E8ECE5F29E
:101F8000F000CDC0CDC8D200EFF0EEF8E8E2EAE014
:101F900020312E3000C4E0F2F7E8EA20D1C1CC2D88
:101FA00032310000CA9A3B00E1F505809698004066
:101FB000420F00A086010010270000E80300006423
:0C1FC0000000000A00000001000000000A
:00000001FF
